{
  "contractName": "RedPocket",
  "abi": [
    {
      "inputs": [
        {
          "internalType": "address[10]",
          "name": "companyAddress",
          "type": "address[10]"
        },
        {
          "internalType": "address[5]",
          "name": "techAddress",
          "type": "address[5]"
        },
        {
          "internalType": "uint256",
          "name": "baseAmount",
          "type": "uint256"
        },
        {
          "internalType": "uint8",
          "name": "fiveCount",
          "type": "uint8"
        }
      ],
      "payable": false,
      "stateMutability": "nonpayable",
      "type": "constructor"
    },
    {
      "payable": true,
      "stateMutability": "payable",
      "type": "fallback"
    },
    {
      "constant": true,
      "inputs": [],
      "name": "_baseAmount",
      "outputs": [
        {
          "internalType": "uint256",
          "name": "",
          "type": "uint256"
        }
      ],
      "payable": false,
      "stateMutability": "view",
      "type": "function"
    },
    {
      "constant": true,
      "inputs": [],
      "name": "_pid",
      "outputs": [
        {
          "internalType": "uint128",
          "name": "",
          "type": "uint128"
        }
      ],
      "payable": false,
      "stateMutability": "view",
      "type": "function"
    },
    {
      "constant": true,
      "inputs": [
        {
          "internalType": "uint64",
          "name": "",
          "type": "uint64"
        }
      ],
      "name": "_playerMap",
      "outputs": [
        {
          "internalType": "address",
          "name": "",
          "type": "address"
        }
      ],
      "payable": false,
      "stateMutability": "view",
      "type": "function"
    },
    {
      "constant": true,
      "inputs": [
        {
          "internalType": "address",
          "name": "",
          "type": "address"
        }
      ],
      "name": "_players",
      "outputs": [
        {
          "internalType": "uint64",
          "name": "id",
          "type": "uint64"
        },
        {
          "internalType": "address",
          "name": "referer",
          "type": "address"
        },
        {
          "internalType": "uint8",
          "name": "level",
          "type": "uint8"
        },
        {
          "internalType": "uint64",
          "name": "receivedCount",
          "type": "uint64"
        }
      ],
      "payable": false,
      "stateMutability": "view",
      "type": "function"
    },
    {
      "constant": true,
      "inputs": [],
      "name": "_ratio",
      "outputs": [
        {
          "internalType": "uint8",
          "name": "",
          "type": "uint8"
        }
      ],
      "payable": false,
      "stateMutability": "view",
      "type": "function"
    },
    {
      "constant": true,
      "inputs": [
        {
          "internalType": "uint128",
          "name": "",
          "type": "uint128"
        }
      ],
      "name": "_redPocketMap",
      "outputs": [
        {
          "internalType": "uint64",
          "name": "from",
          "type": "uint64"
        },
        {
          "internalType": "uint64",
          "name": "to",
          "type": "uint64"
        }
      ],
      "payable": false,
      "stateMutability": "view",
      "type": "function"
    },
    {
      "constant": true,
      "inputs": [],
      "name": "_uid",
      "outputs": [
        {
          "internalType": "uint64",
          "name": "",
          "type": "uint64"
        }
      ],
      "payable": false,
      "stateMutability": "view",
      "type": "function"
    },
    {
      "constant": true,
      "inputs": [],
      "name": "owner",
      "outputs": [
        {
          "internalType": "address",
          "name": "",
          "type": "address"
        }
      ],
      "payable": false,
      "stateMutability": "view",
      "type": "function"
    },
    {
      "constant": false,
      "inputs": [
        {
          "internalType": "address",
          "name": "newOwner",
          "type": "address"
        }
      ],
      "name": "transferOwnership",
      "outputs": [],
      "payable": false,
      "stateMutability": "nonpayable",
      "type": "function"
    },
    {
      "constant": false,
      "inputs": [
        {
          "internalType": "uint256",
          "name": "baseAmount",
          "type": "uint256"
        }
      ],
      "name": "setBaseAmount",
      "outputs": [],
      "payable": false,
      "stateMutability": "nonpayable",
      "type": "function"
    },
    {
      "constant": false,
      "inputs": [
        {
          "internalType": "uint8",
          "name": "ratio",
          "type": "uint8"
        }
      ],
      "name": "setRatio",
      "outputs": [],
      "payable": false,
      "stateMutability": "nonpayable",
      "type": "function"
    },
    {
      "constant": false,
      "inputs": [
        {
          "internalType": "address",
          "name": "refAddress",
          "type": "address"
        }
      ],
      "name": "sendPocket",
      "outputs": [],
      "payable": true,
      "stateMutability": "payable",
      "type": "function"
    },
    {
      "constant": true,
      "inputs": [
        {
          "internalType": "uint64",
          "name": "uid",
          "type": "uint64"
        },
        {
          "internalType": "uint8",
          "name": "depth",
          "type": "uint8"
        },
        {
          "internalType": "uint8",
          "name": "maxDepth",
          "type": "uint8"
        }
      ],
      "name": "statisticDirectPushCount",
      "outputs": [
        {
          "internalType": "uint256",
          "name": "",
          "type": "uint256"
        }
      ],
      "payable": false,
      "stateMutability": "view",
      "type": "function"
    },
    {
      "constant": true,
      "inputs": [],
      "name": "getPlayerInfo",
      "outputs": [
        {
          "internalType": "uint64",
          "name": "",
          "type": "uint64"
        },
        {
          "internalType": "address",
          "name": "",
          "type": "address"
        },
        {
          "internalType": "uint8",
          "name": "",
          "type": "uint8"
        },
        {
          "internalType": "uint64[]",
          "name": "",
          "type": "uint64[]"
        },
        {
          "internalType": "uint256",
          "name": "",
          "type": "uint256"
        },
        {
          "internalType": "uint256[9]",
          "name": "",
          "type": "uint256[9]"
        },
        {
          "internalType": "uint64",
          "name": "",
          "type": "uint64"
        }
      ],
      "payable": false,
      "stateMutability": "view",
      "type": "function"
    }
  ],
  "bytecode": "0x60806040526005805460ff1916600a1790553480156200001e57600080fd5b50604051620017b7380380620017b783398181016040526102208110156200004557600080fd5b506101e081015161020082015160008054600160a060020a03191633179055610140830191906200007a600685600a620002de565b506200008a60108460056200033b565b5060158290556005805461ff00191661010060ff84160217905560005b600a816001604060020a031610156200013457600180546001604060020a037001000000000000000000000000000000008083048216840182168102608060020a60c060020a031990931692909217928390556200012b929190910481169087908416600a81106200011557fe5b60200201516000640100000000620001ba810204565b600101620000a7565b5060005b6005816001604060020a03161015620001af57600180546001604060020a037001000000000000000000000000000000008083048216840182168102608060020a60c060020a03199093169290921792839055620001a6929190910481169086908416600581106200011557fe5b60010162000138565b5050505050620003af565b600160a060020a0381166000908152600460205260409020546001604060020a0316156200027d57600160a060020a0381811660008181526004602081815260408084206001908101805491820181558552918420928204909201805460039092166008026101000a6001604060020a0381810219909316928a160291909117905592851681529190912080547fffffffff0000000000000000000000000000000000000000ffffffffffffffff16680100000000000000009092029190911790555b50600160a060020a03166000818152600460209081526040808320805467ffffffffffffffff19166001604060020a039690961695861760e060020a60ff021916905593825260039052919091208054600160a060020a0319169091179055565b82600a810192821562000329579160200282015b82811115620003295782518254600160a060020a031916600160a060020a03909116178255602090920191600190910190620002f2565b506200033792915062000385565b5090565b8260058101928215620003295791602002820182811115620003295782518254600160a060020a031916600160a060020a03909116178255602090920191600190910190620002f2565b620003ac91905b8082111562000337578054600160a060020a03191681556001016200038c565b90565b6113f880620003bf6000396000f3fe6080604052600436106100e15760003560e060020a90048063ca1c0fea11610083578063da9c8e8a1161005d578063da9c8e8a14610386578063e39f0d64146103ac578063e6a23ac31461041e578063f2fde38b14610481576100e1565b8063ca1c0fea14610234578063cefb6fa614610268578063d1df81df146102a2576100e1565b80634330301f116100bf5780634330301f146101965780634ddfae4b146101c15780638d994beb146101d65780638da5cb5b14610203576100e1565b80630fa10a57146100e3578063224a7c6a1461013a57806338e2e75314610164575b005b3480156100ef57600080fd5b506101286004803603606081101561010657600080fd5b5067ffffffffffffffff8135169060ff602082013581169160400135166104b4565b60408051918252519081900360200190f35b34801561014657600080fd5b506100e16004803603602081101561015d57600080fd5b50356105d6565b34801561017057600080fd5b5061017961063d565b6040805167ffffffffffffffff9092168252519081900360200190f35b3480156101a257600080fd5b506101ab610661565b6040805160ff9092168252519081900360200190f35b3480156101cd57600080fd5b5061012861066a565b3480156101e257600080fd5b506100e1600480360360208110156101f957600080fd5b503560ff16610670565b34801561020f57600080fd5b506102186106e8565b60408051600160a060020a039092168252519081900360200190f35b34801561024057600080fd5b506102186004803603602081101561025757600080fd5b503567ffffffffffffffff166106f7565b34801561027457600080fd5b5061027d610712565b604080516fffffffffffffffffffffffffffffffff9092168252519081900360200190f35b3480156102ae57600080fd5b506102b761072a565b6040805167ffffffffffffffff89168152600160a060020a038816602082015260ff871691810191909152608081018490526060810160a082018461012080838360005b838110156103135781810151838201526020016102fb565b505050509050018367ffffffffffffffff1667ffffffffffffffff168152602001828103825286818151815260200191508051906020019060200280838360005b8381101561036c578181015183820152602001610354565b505050509050019850505050505050505060405180910390f35b6100e16004803603602081101561039c57600080fd5b5035600160a060020a03166108ba565b3480156103b857600080fd5b506103df600480360360208110156103cf57600080fd5b5035600160a060020a0316610e2c565b6040805167ffffffffffffffff9586168152600160a060020a03909416602085015260ff90921683830152909216606082015290519081900360800190f35b34801561042a57600080fd5b5061045a6004803603602081101561044157600080fd5b50356fffffffffffffffffffffffffffffffff16610e75565b6040805167ffffffffffffffff938416815291909216602082015281519081900390910190f35b34801561048d57600080fd5b506100e1600480360360208110156104a457600080fd5b5035600160a060020a0316610ea1565b67ffffffffffffffff8316600090815260036020908152604080832054600160a060020a0316835260048252808320600101805482518185028101850190935280835260609383018282801561055d57602002820191906000526020600020906000905b82829054906101000a900467ffffffffffffffff1667ffffffffffffffff16815260200190600801906020826007010492830192600103820291508084116105185790505b5050835193945050505060ff80851690861610158061057a575080155b156105885791506105cf9050565b60019094019360005b82518160ff1610156105ca576105be838260ff16815181106105af57fe5b602002602001015187876104b4565b90910190600101610591565b509150505b9392505050565b600054600160a060020a03163314610638576040805160e560020a62461bcd02815260206004820152600a60248201527f4f6e6c79206f776e657200000000000000000000000000000000000000000000604482015290519081900360640190fd5b601555565b600154700100000000000000000000000000000000900467ffffffffffffffff1681565b60055460ff1681565b60155481565b600054600160a060020a031633146106d2576040805160e560020a62461bcd02815260206004820152600a60248201527f4f6e6c79206f776e657200000000000000000000000000000000000000000000604482015290519081900360640190fd5b6005805460ff191660ff92909216919091179055565b600054600160a060020a031681565b600360205260009081526040902054600160a060020a031681565b6002546fffffffffffffffffffffffffffffffff1681565b60008060006060600061073b611377565b6000610745611396565b33600090815260046020908152604091829020825160a081018452815467ffffffffffffffff81168252600160a060020a03680100000000000000008204168285015260e060020a900460ff1681850152600182018054855181860281018601909652808652919492936060860193929083018282801561081957602002820191906000526020600020906000905b82829054906101000a900467ffffffffffffffff1667ffffffffffffffff16815260200190600801906020826007010492830192600103820291508084116107d45790505b50505091835250506002919091015467ffffffffffffffff166020909101529050610842611377565b60008060015b60098160ff161161088b578451610861906001836104b4565b8390039150818460ff6000198401166009811061087a57fe5b602002015291810191600101610848565b50508251602084015160408501516060860151608090960151929d919c509a5093985090965090945092509050565b3360009081526004602052604090205460e060020a900460ff168015806108e457508060ff166004145b15610945576015546002023414610945576040805160e560020a62461bcd02815260206004820152601360248201527f54686520616d6f756e742069732077726f6e6700000000000000000000000000604482015290519081900360640190fd5b8060ff16600114156109c15733600090815260046020526040902060010154600311156109bc576040805160e560020a62461bcd02815260206004820152601260248201527f4e6f7420757020746f207374616e646172640000000000000000000000000000604482015290519081900360640190fd5b610a62565b8060ff1660041415610a625733600090815260046020819052604082205490916001916109f99067ffffffffffffffff1683856104b4565b600554909150610100900460ff16811015610a5e576040805160e560020a62461bcd02815260206004820152601260248201527f4e6f7420757020746f207374616e646172640000000000000000000000000000604482015290519081900360640190fd5b5050505b610a6a611396565b33600090815260046020908152604091829020825160a081018452815467ffffffffffffffff81168252600160a060020a03680100000000000000008204168285015260e060020a900460ff16818501526001820180548551818602810186019096528086529194929360608601939290830182828015610b3e57602002820191906000526020600020906000905b82829054906101000a900467ffffffffffffffff1667ffffffffffffffff1681526020019060080190602082600701049283019260010382029150808411610af95790505b50505091835250506002919091015467ffffffffffffffff90811660209092019190915260408201518251929350916001830191600091829116610d46576001805467ffffffffffffffff700100000000000000000000000000000000808304821684019091160277ffffffffffffffff0000000000000000000000000000000019909116179055610bce611396565b600160a060020a03888116600090815260046020908152604091829020825160a081018452815467ffffffffffffffff811682526801000000000000000081049095168184015260e060020a90940460ff168484015260018101805484518185028101850190955280855291936060860193909290830182828015610ca657602002820191906000526020600020906000905b82829054906101000a900467ffffffffffffffff1667ffffffffffffffff1681526020019060080190602082600701049283019260010382029150808411610c615790505b50505091835250506002919091015467ffffffffffffffff908116602090920191909152815191925016610d1057600154610d0190700100000000000000000000000000000000900467ffffffffffffffff16336000610f3e565b610d09611087565b9250610d40565b600154610d3c90700100000000000000000000000000000000900467ffffffffffffffff16338a610f3e565b8792505b50610d58565b610d55856020015184856111b9565b91505b60ff84161580610d6b57508360ff166004145b15610dcb57600160a060020a038216600090815260046020526040902054600f67ffffffffffffffff9091161115610db357610dac826005856004016111b9565b9050610dbe565b610dbb611087565b90505b610dcb3382601554611265565b336000818152600460205260409020805460ff60e060020a8083048216600101909116027cff0000000000000000000000000000000000000000000000000000000019909116179055601554610e2391908490611265565b50505050505050565b6004602052600090815260409020805460029091015467ffffffffffffffff80831692680100000000000000008104600160a060020a03169260e060020a90910460ff16911684565b60166020526000908152604090205467ffffffffffffffff808216916801000000000000000090041682565b600054600160a060020a03163314610f03576040805160e560020a62461bcd02815260206004820152600a60248201527f4f6e6c79206f776e657200000000000000000000000000000000000000000000604482015290519081900360640190fd5b600160a060020a03811615610f3b576000805473ffffffffffffffffffffffffffffffffffffffff1916600160a060020a0383161790555b50565b600160a060020a03811660009081526004602052604090205467ffffffffffffffff161561100257600160a060020a0381811660008181526004602081815260408084206001908101805491820181558552918420928204909201805460039092166008026101000a67ffffffffffffffff81810219909316928a160291909117905592851681529190912080547fffffffff0000000000000000000000000000000000000000ffffffffffffffff16680100000000000000009092029190911790555b50600160a060020a03166000818152600460209081526040808320805467ffffffffffffffff191667ffffffffffffffff969096169586177cff00000000000000000000000000000000000000000000000000000000191690559382526003905291909120805473ffffffffffffffffffffffffffffffffffffffff19169091179055565b600080547fffffffff0000000000000000ffffffffffffffffffffffffffffffffffffffff8116740100000000000000000000000000000000000000009182900467ffffffffffffffff908116600101811683029190911780845560055460ff1692900416816110f357fe5b0667ffffffffffffffff1660001415611175576001805467ffffffffffffffff6801000000000000000080830482168401821681026fffffffffffffffff00000000000000001990931692909217928390556010926005929004160667ffffffffffffffff166005811061116357fe5b0154600160a060020a031690506111b6565b6001805467ffffffffffffffff19811667ffffffffffffffff918216830182161791829055600691600a91160667ffffffffffffffff16600a811061116357fe5b90565b600060015b8360ff1681121561122057600160a060020a03948516600090815260046020526040808220546801000000000000000090049096168082529590205467ffffffffffffffff1661121857611210611087565b9150506105cf565b6001016111be565b50600160a060020a03841660009081526004602052604090205460ff80841660e060020a90920416101561125d57611256611087565b90506105cf565b509192915050565b600280546fffffffffffffffffffffffffffffffff19811660016fffffffffffffffffffffffffffffffff9283168101831691909117808455600160a060020a0387811660009081526004602081815260408084205495881684526016808352818520805467ffffffffffffffff98891667ffffffffffffffff1991821617909155958c1680865284845282862080548c54909b16875291845282862080546fffffffffffffffff000000000000000019169a891668010000000000000000029a909a17909955888552929091529601805492831692841690940190921617909155915190916108fc841502918491818181858888f19350505050158015611371573d6000803e3d6000fd5b50505050565b6040518061012001604052806009906020820280388339509192915050565b6040805160a08101825260008082526020820181905291810182905260608082015260808101919091529056fea265627a7a72315820f2e97e325dfc12b8313de8fc09b911b45d8acf3b6a5d30ef3e9dc84d9726d82664736f6c63430005110032",
  "source": "pragma solidity ^0.5.1;\r\n\r\nimport './Ownable.sol';\r\n// import './Base.sol';\r\n\r\ncontract RedPocket is Ownable{\r\n  \r\n      // test\r\n    // Erc20Token internal _usdtIns;\r\n\r\n    constructor (address[10] memory companyAddress, address[5] memory techAddress, uint256 baseAmount, uint8 fiveCount) Ownable() public {\r\n        _companyAddresses = companyAddress;\r\n        _techAddresses = techAddress;\r\n        _baseAmount = baseAmount;\r\n        _fiveCount = fiveCount;\r\n        for(uint64 i = 0;i<companyAddress.length;i++){\r\n          _uid ++;\r\n          register(_uid,companyAddress[i],address(0));\r\n        }\r\n        for(uint64 i = 0;i<techAddress.length;i++){\r\n          _uid ++;\r\n          register(_uid,techAddress[i],address(0));\r\n        }\r\n    }\r\n\r\n    struct RedPocket{\r\n      uint64 from; // 红包发送者\r\n      uint64 to; // 红包接收者\r\n    }\r\n    // struct RedPocket{\r\n    //   uint128 id; // 红包ID\r\n    //   address from; // 红包发送者\r\n    //   address to; // 红包接收者\r\n    //   uint8 level; // 红包的等级\r\n    // }\r\n\r\n    struct Player{\r\n      uint64 id; // 用户ID\r\n      address referer; // 推荐人\r\n      // address lastRecipient; // 上次接收红包的地址\r\n      uint8 level;// 用户级别\r\n      uint64[] directPushs; // 直推人信息\r\n      // uint64[] sendList; // 发出去的红包接收者\r\n      // uint64[] receivedList; // 接收到的红包发送者ID\r\n      uint64 receivedCount;\r\n    }\r\n\r\n    uint64 _rotationId; // 轮循ID，捡漏红包总数 retationId = companyId + techId;\r\n    uint64 _companyId; // 公司轮循ID\r\n    uint64 _techId; // 技术轮循ID\r\n    uint64 public _uid; // 用户总ID\r\n    uint128 public _pid; // 红包总ID\r\n\r\n    mapping(uint64=>address) public _playerMap; // 以id为key存储id和地址的对应关系\r\n    mapping(address=>Player) public _players;// 以address为key存储用户的信息\r\n\r\n    // mapping(address=>uint64[]) msg.senders; // 某个地址发送的所有红包地址，1个人最多发送11个红包，可以按照下标来获取上级推荐人\r\n    // mapping(address=>uint64[]) _recipients; // 某个地址接收的所有红包地址\r\n    // uint256 public _baseUnit = 10 ** 6; // USDT精度\r\n    uint8 constant private _companyCount = 10; // 公司地址数量\r\n    uint8 constant private _techCount = 5; // 技术地址数量\r\n    uint8 constant private _addressCount = _companyCount + _techCount;// 总的捡漏地址数量\r\n\r\n    uint8 public _ratio = 10; // 技术地址捡漏比例 10 代表 1/10\r\n    uint8 private _fiveCount; // 5级达标人数\r\n    // uint256 public _techFee = (30 / 10000) * 10 ** 18 ; // 技术服务费（万分位）\r\n\r\n    address[10] private _companyAddresses; // 公司合约地址\r\n    address[5] private _techAddresses; // 技术分红地址\r\n    uint256 public _baseAmount; // 游戏基数\r\n\r\n    mapping(uint128=>RedPocket) public _redPocketMap;\r\n    \r\n    // address payable receiver = address(this);\r\n\r\n    function setBaseAmount(uint256 baseAmount) onlyOwner public {\r\n      _baseAmount = baseAmount;\r\n    }\r\n\r\n    function setRatio(uint8 ratio) onlyOwner public {\r\n      _ratio = ratio;\r\n    }\r\n    /**\r\n     * 发送红包\r\n     * 推荐人\r\n     */\r\n    function sendPocket(address  refAddress) canUpgrade() public payable {\r\n      Player memory player = _players[msg.sender];\r\n      \r\n      // id = 0, 表示用户不存在，id > 0 && 小于等于 15 表示是技术分红地址\r\n      // require(_player.id == 0 || _player.id > 15,\"illegal address\")\r\n      // 当前玩家星级，0级、4级分别需要查到上面第5级和第9级的用户\r\n      uint8 level = player.level;\r\n      uint8 nextLevel = level + 1;\r\n\r\n      address recipient;\r\n      address fiveReferer;\r\n      // 代表该玩家不存在\r\n      if(player.id == 0){\r\n        // 玩家数量加1\r\n        _uid ++;\r\n        Player memory referer = _players[refAddress];\r\n        // 如果推荐人是0地址则代表没有推荐人\r\n        if(referer.id == 0){\r\n          register(_uid,msg.sender,address(0));\r\n          recipient = getRotationAddress();\r\n        } else {\r\n          register(_uid,msg.sender,refAddress);\r\n          recipient = refAddress;\r\n        }\r\n      }else{\r\n        recipient = getNextLevelRecipient(player.referer, nextLevel, nextLevel);\r\n      }\r\n      if(level == 0 || level == 4){\r\n        if(_players[recipient].id > _addressCount){\r\n          // 升1级和升5级，要给5级和9级红包，相当于是上一级0->1、4->5，再加4处理\r\n          // 直接用下一级的接收者+4，可以节省前面轮循的4次\r\n          fiveReferer = getNextLevelRecipient(recipient, 5, nextLevel + 4);\r\n        }else{\r\n          fiveReferer = getRotationAddress();\r\n        }\r\n        // 转账给5级接收者\r\n        transfer(msg.sender,fiveReferer, _baseAmount);\r\n      }\r\n      // 用户升一级\r\n      _players[msg.sender].level += 1;\r\n      // 转账给接收者\r\n      transfer(msg.sender,recipient, _baseAmount);\r\n      // this.send(_techFee);\r\n    }\r\n\r\n    function transfer(address from, address to ,uint value) private {\r\n      _pid ++;\r\n      // _players[from].sendList.push(_players[to].id);\r\n      // _players[to].receivedList.push(_players[from].id);\r\n      _redPocketMap[_pid].from = _players[from].id;\r\n      _redPocketMap[_pid].to = _players[to].id;\r\n      _players[to].receivedCount+=1;\r\n      // _usdtIns.transferFrom(from, to, value);\r\n      address(uint160(to)).transfer(value);\r\n    }\r\n\r\n    /**\r\n    * 检查玩家是否可以升级\r\n     */\r\n    modifier canUpgrade(){\r\n      uint8 level = _players[msg.sender].level;\r\n      // ETH版本需要打开这个验证\r\n      if(level==0 || level == 4){\r\n        require(msg.value == _baseAmount * 2, \"The amount is wrong\");\r\n      }\r\n      if(level == 1){\r\n        // 推荐3个玩家\r\n        require(_players[msg.sender].directPushs.length >= 3, \"Not up to standard\");\r\n      }else if(level == 4){\r\n        // 下线已经推荐了81个玩家\r\n        uint8 maxDepth = 4; // 最大深度，即往下查几代\r\n        uint8 depth = 1;\r\n        uint256 count = statisticDirectPushCount(_players[msg.sender].id,depth,maxDepth);\r\n        require(count >= _fiveCount, \"Not up to standard\");\r\n      }      \r\n      _;\r\n    }\r\n\r\n    /**\r\n    * 递归函数，查询一个地址下面人脉数\r\n    * uid 玩家ID\r\n    * depth 传入玩家的相对深度\r\n    * maxDepth 查询的最大深度\r\n    */\r\n    function statisticDirectPushCount(uint64 uid,uint8 depth,uint8 maxDepth) view public returns(uint256){\r\n      uint64[] memory arr = _players[_playerMap[uid]].directPushs;\r\n      uint256 count = arr.length;\r\n      if(depth >= maxDepth || count == 0){\r\n        return count;\r\n      }\r\n      depth ++ ;\r\n      for(uint8 i = 0; i < arr.length ; i++){\r\n        count = count + statisticDirectPushCount(arr[i], depth, maxDepth);\r\n      }\r\n      return count;\r\n    }\r\n\r\n    /**\r\n    * [0]玩家ID\r\n    * [1]玩家邀请人\r\n    * [2]玩家等级level\r\n    * [3]玩家直推人[]\r\n    * [4]人脉总数\r\n    * [5]各级人数[]\r\n    * [6]发送出去的红包接收者[]\r\n    * [7]收到的红包发送者[]\r\n     */\r\n    // function getPlayerInfo() view public returns(uint64,address,uint8,uint64[] memory,uint256,uint256[9] memory,uint64[] memory,uint64[] memory){\r\n    function getPlayerInfo() view public returns(uint64,address,uint8,uint64[] memory,uint256,uint256[9] memory,uint64){\r\n      Player memory player = _players[msg.sender];\r\n      // 获取9个等级的人数\r\n      uint256[9] memory levelCount;\r\n      uint256 totalCount = 0;\r\n      uint256 count;\r\n      for(uint8 i = 1; i <= 9; i++){\r\n        count = statisticDirectPushCount(player.id, 1, i);\r\n        count = count - totalCount;\r\n        levelCount[i-1] = count;\r\n        totalCount += count;\r\n      }\r\n      // return (player.id,player.referer,player.level,player.directPushs,totalCount,levelCount,player.sendList,player.receivedList);\r\n      return (player.id,player.referer,player.level,player.directPushs,totalCount,levelCount,player.receivedCount);\r\n    }\r\n\r\n    /**\r\n    * 获取下一级接收者\r\n    * addr 该玩家的推荐人地址（省一个轮循）\r\n    * level 玩家的下一级别\r\n    * standardLevel 接收者的级别要求\r\n     */\r\n    function getNextLevelRecipient(address addr ,uint8 level,uint8 standardLevel) private returns(address){\r\n      for(int i = 1 ;i < level; i++){\r\n        addr = _players[addr].referer;\r\n        if(_players[addr].id == 0){\r\n          // 获取捡漏地址\r\n          return getRotationAddress();\r\n        }\r\n      }\r\n      if(_players[addr].level < standardLevel){\r\n        return getRotationAddress();\r\n      }\r\n      return addr;\r\n    }\r\n\r\n    // 注册玩家信息\r\n    function register(uint64 uid, address sender, address referer) private {\r\n      // uint64[] memory arr;\r\n      if(_players[referer].id != 0){\r\n        _players[referer].directPushs.push(uid);\r\n        _players[sender].referer = referer;\r\n      }\r\n      // Player memory player = Player(uid,referer,1,arr);\r\n      _players[sender].id = uid;\r\n      _players[sender].level = 0;\r\n      _playerMap[uid]=sender;\r\n    }\r\n\r\n    /**\r\n    * 获取轮循库中的地址\r\n    */\r\n    function getRotationAddress() private returns(address){\r\n      _rotationId ++;\r\n      // 一个技术地址得红包\r\n      if(_rotationId % _ratio == 0){\r\n        _techId ++;\r\n        return _techAddresses[_techId % _techCount];\r\n      }else{\r\n        _companyId ++;\r\n        return _companyAddresses[_companyId % _companyCount];\r\n      }\r\n    }\r\n\r\n    function () external payable {}\r\n}",
  "sourcePath": "D:/projects/github/solidity/red-pocket/contracts/RedPocket.sol",
  "compiler": {
    "name": "solc",
    "version": "0.5.17+commit.d19bba13.Emscripten.clang"
  },
  "schemaVersion": "3.2.5",
  "updatedAt": "2021-01-19T11:20:12.190Z",
  "networkType": "ethereum",
  "devdoc": {
    "methods": {
      "transferOwnership(address)": {
        "details": "Allows the current owner to transfer control of the contract to a newOwner.",
        "params": {
          "newOwner": "The address to transfer ownership to."
        }
      }
    }
  },
  "userdoc": {
    "methods": {
      "getPlayerInfo()": {
        "notice": "[0]玩家ID [1]玩家邀请人 [2]玩家等级level [3]玩家直推人[] [4]人脉总数 [5]各级人数[] [6]发送出去的红包接收者[] [7]收到的红包发送者[]"
      },
      "sendPocket(address)": {
        "notice": "发送红包 推荐人"
      },
      "statisticDirectPushCount(uint64,uint8,uint8)": {
        "notice": "递归函数，查询一个地址下面人脉数 uid 玩家ID depth 传入玩家的相对深度 maxDepth 查询的最大深度"
      }
    }
  }
}