{
  "contractName": "RedPocketOfUSDT",
  "abi": [
    {
      "inputs": [
        {
          "internalType": "address[10]",
          "name": "companyAddress",
          "type": "address[10]"
        },
        {
          "internalType": "address[5]",
          "name": "techAddress",
          "type": "address[5]"
        },
        {
          "internalType": "address",
          "name": "token",
          "type": "address"
        },
        {
          "internalType": "uint256",
          "name": "baseAmount",
          "type": "uint256"
        },
        {
          "internalType": "uint8",
          "name": "fiveCount",
          "type": "uint8"
        }
      ],
      "payable": false,
      "stateMutability": "nonpayable",
      "type": "constructor"
    },
    {
      "payable": true,
      "stateMutability": "payable",
      "type": "fallback"
    },
    {
      "constant": true,
      "inputs": [],
      "name": "_baseAmount",
      "outputs": [
        {
          "internalType": "uint256",
          "name": "",
          "type": "uint256"
        }
      ],
      "payable": false,
      "stateMutability": "view",
      "type": "function"
    },
    {
      "constant": true,
      "inputs": [],
      "name": "_pid",
      "outputs": [
        {
          "internalType": "uint128",
          "name": "",
          "type": "uint128"
        }
      ],
      "payable": false,
      "stateMutability": "view",
      "type": "function"
    },
    {
      "constant": true,
      "inputs": [
        {
          "internalType": "uint64",
          "name": "",
          "type": "uint64"
        }
      ],
      "name": "_playerMap",
      "outputs": [
        {
          "internalType": "address",
          "name": "",
          "type": "address"
        }
      ],
      "payable": false,
      "stateMutability": "view",
      "type": "function"
    },
    {
      "constant": true,
      "inputs": [
        {
          "internalType": "address",
          "name": "",
          "type": "address"
        }
      ],
      "name": "_players",
      "outputs": [
        {
          "internalType": "uint64",
          "name": "id",
          "type": "uint64"
        },
        {
          "internalType": "address",
          "name": "referer",
          "type": "address"
        },
        {
          "internalType": "uint8",
          "name": "level",
          "type": "uint8"
        },
        {
          "internalType": "uint64",
          "name": "receivedCount",
          "type": "uint64"
        }
      ],
      "payable": false,
      "stateMutability": "view",
      "type": "function"
    },
    {
      "constant": true,
      "inputs": [
        {
          "internalType": "uint128",
          "name": "",
          "type": "uint128"
        }
      ],
      "name": "_redPocketMap",
      "outputs": [
        {
          "internalType": "uint64",
          "name": "from",
          "type": "uint64"
        },
        {
          "internalType": "uint64",
          "name": "to",
          "type": "uint64"
        }
      ],
      "payable": false,
      "stateMutability": "view",
      "type": "function"
    },
    {
      "constant": true,
      "inputs": [],
      "name": "_uid",
      "outputs": [
        {
          "internalType": "uint64",
          "name": "",
          "type": "uint64"
        }
      ],
      "payable": false,
      "stateMutability": "view",
      "type": "function"
    },
    {
      "constant": true,
      "inputs": [],
      "name": "owner",
      "outputs": [
        {
          "internalType": "address",
          "name": "",
          "type": "address"
        }
      ],
      "payable": false,
      "stateMutability": "view",
      "type": "function"
    },
    {
      "constant": false,
      "inputs": [
        {
          "internalType": "address",
          "name": "newOwner",
          "type": "address"
        }
      ],
      "name": "transferOwnership",
      "outputs": [],
      "payable": false,
      "stateMutability": "nonpayable",
      "type": "function"
    },
    {
      "constant": false,
      "inputs": [
        {
          "internalType": "uint256",
          "name": "baseAmount",
          "type": "uint256"
        }
      ],
      "name": "setBaseAmount",
      "outputs": [],
      "payable": false,
      "stateMutability": "nonpayable",
      "type": "function"
    },
    {
      "constant": false,
      "inputs": [
        {
          "internalType": "address",
          "name": "refAddress",
          "type": "address"
        }
      ],
      "name": "sendPocket",
      "outputs": [],
      "payable": true,
      "stateMutability": "payable",
      "type": "function"
    },
    {
      "constant": true,
      "inputs": [
        {
          "internalType": "uint64",
          "name": "uid",
          "type": "uint64"
        },
        {
          "internalType": "uint8",
          "name": "depth",
          "type": "uint8"
        },
        {
          "internalType": "uint8",
          "name": "maxDepth",
          "type": "uint8"
        }
      ],
      "name": "statisticDirectPushCount",
      "outputs": [
        {
          "internalType": "uint256",
          "name": "",
          "type": "uint256"
        }
      ],
      "payable": false,
      "stateMutability": "view",
      "type": "function"
    },
    {
      "constant": true,
      "inputs": [],
      "name": "getPlayerInfo",
      "outputs": [
        {
          "internalType": "uint64",
          "name": "",
          "type": "uint64"
        },
        {
          "internalType": "address",
          "name": "",
          "type": "address"
        },
        {
          "internalType": "uint8",
          "name": "",
          "type": "uint8"
        },
        {
          "internalType": "uint64[]",
          "name": "",
          "type": "uint64[]"
        },
        {
          "internalType": "uint256",
          "name": "",
          "type": "uint256"
        },
        {
          "internalType": "uint256[9]",
          "name": "",
          "type": "uint256[9]"
        },
        {
          "internalType": "uint64",
          "name": "",
          "type": "uint64"
        }
      ],
      "payable": false,
      "stateMutability": "view",
      "type": "function"
    }
  ],
  "bytecode": "0x60806040523480156200001157600080fd5b506040516200168f3803806200168f83398181016040526102408110156200003857600080fd5b506101e081015161020082015161022083015160008054600160a060020a03191633179055610140840192919062000074600786600a620002f1565b506200008460118560056200034e565b5060018054600160a060020a031916600160a060020a03851617905560168290556006805460ff191660ff831617905560005b600a816001604060020a0316101562000145576002805460016001604060020a0370010000000000000000000000000000000080840482169290920181168202608060020a60c060020a031990931692909217928390556200013c920481169088908416600a81106200012657fe5b60200201516000640100000000620001cd810204565b600101620000b7565b5060005b6005816001604060020a03161015620001c1576002805460016001604060020a0370010000000000000000000000000000000080840482169290920181168202608060020a60c060020a03199093169290921792839055620001b8920481169087908416600581106200012657fe5b60010162000149565b505050505050620003c2565b600160a060020a0381166000908152600560205260409020546001604060020a0316156200029057600160a060020a03818116600081815260056020908152604080832060019081018054918201815584529183206004830401805460039093166008026101000a6001604060020a0381810219909416938a16029290921790915592851681529190912080547fffffffff0000000000000000000000000000000000000000ffffffffffffffff16680100000000000000009092029190911790555b50600160a060020a03166000818152600560209081526040808320805467ffffffffffffffff19166001604060020a039690961695861760e060020a60ff021916905593825260049052919091208054600160a060020a0319169091179055565b82600a81019282156200033c579160200282015b828111156200033c5782518254600160a060020a031916600160a060020a0390911617825560209092019160019091019062000305565b506200034a92915062000398565b5090565b82600581019282156200033c57916020028201828111156200033c5782518254600160a060020a031916600160a060020a0390911617825560209092019160019091019062000305565b620003bf91905b808211156200034a578054600160a060020a03191681556001016200039f565b90565b6112bd80620003d26000396000f3fe6080604052600436106100ab5760003560e060020a90048063cefb6fa611610068578063cefb6fa6146101da578063d1df81df14610214578063da9c8e8a146102f8578063e39f0d641461031e578063e6a23ac314610390578063f2fde38b146103f3576100ab565b80630fa10a57146100ad578063224a7c6a1461010457806338e2e7531461012e5780634ddfae4b146101605780638da5cb5b14610175578063ca1c0fea146101a6575b005b3480156100b957600080fd5b506100f2600480360360608110156100d057600080fd5b5067ffffffffffffffff8135169060ff60208201358116916040013516610426565b60408051918252519081900360200190f35b34801561011057600080fd5b506100ab6004803603602081101561012757600080fd5b5035610548565b34801561013a57600080fd5b506101436105af565b6040805167ffffffffffffffff9092168252519081900360200190f35b34801561016c57600080fd5b506100f26105d3565b34801561018157600080fd5b5061018a6105d9565b60408051600160a060020a039092168252519081900360200190f35b3480156101b257600080fd5b5061018a600480360360208110156101c957600080fd5b503567ffffffffffffffff166105e8565b3480156101e657600080fd5b506101ef610603565b604080516fffffffffffffffffffffffffffffffff9092168252519081900360200190f35b34801561022057600080fd5b5061022961061b565b6040805167ffffffffffffffff89168152600160a060020a038816602082015260ff871691810191909152608081018490526060810160a082018461012080838360005b8381101561028557818101518382015260200161026d565b505050509050018367ffffffffffffffff1667ffffffffffffffff168152602001828103825286818151815260200191508051906020019060200280838360005b838110156102de5781810151838201526020016102c6565b505050509050019850505050505050505060405180910390f35b6100ab6004803603602081101561030e57600080fd5b5035600160a060020a03166107ab565b34801561032a57600080fd5b506103516004803603602081101561034157600080fd5b5035600160a060020a0316610ca5565b6040805167ffffffffffffffff9586168152600160a060020a03909416602085015260ff90921683830152909216606082015290519081900360800190f35b34801561039c57600080fd5b506103cc600480360360208110156103b357600080fd5b50356fffffffffffffffffffffffffffffffff16610cee565b6040805167ffffffffffffffff938416815291909216602082015281519081900390910190f35b3480156103ff57600080fd5b506100ab6004803603602081101561041657600080fd5b5035600160a060020a0316610d1a565b67ffffffffffffffff8316600090815260046020908152604080832054600160a060020a031683526005825280832060010180548251818502810185019093528083526060938301828280156104cf57602002820191906000526020600020906000905b82829054906101000a900467ffffffffffffffff1667ffffffffffffffff168152602001906008019060208260070104928301926001038202915080841161048a5790505b5050835193945050505060ff8085169086161015806104ec575080155b156104fa5791506105419050565b60019094019360005b82518160ff16101561053c57610530838260ff168151811061052157fe5b60200260200101518787610426565b90910190600101610503565b509150505b9392505050565b600054600160a060020a031633146105aa576040805160e560020a62461bcd02815260206004820152600a60248201527f4f6e6c79206f776e657200000000000000000000000000000000000000000000604482015290519081900360640190fd5b601655565b600254700100000000000000000000000000000000900467ffffffffffffffff1681565b60165481565b600054600160a060020a031681565b600460205260009081526040902054600160a060020a031681565b6003546fffffffffffffffffffffffffffffffff1681565b60008060006060600061062c61123c565b600061063661125b565b33600090815260056020908152604091829020825160a081018452815467ffffffffffffffff81168252600160a060020a03680100000000000000008204168285015260e060020a900460ff1681850152600182018054855181860281018601909652808652919492936060860193929083018282801561070a57602002820191906000526020600020906000905b82829054906101000a900467ffffffffffffffff1667ffffffffffffffff16815260200190600801906020826007010492830192600103820291508084116106c55790505b50505091835250506002919091015467ffffffffffffffff16602090910152905061073361123c565b60008060015b60098160ff161161077c57845161075290600183610426565b8390039150818460ff6000198401166009811061076b57fe5b602002015291810191600101610739565b50508251602084015160408501516060860151608090960151929d919c509a5093985090965090945092509050565b3360009081526005602052604090205460e060020a900460ff16600181141561083e573360009081526005602052604090206001015460031115610839576040805160e560020a62461bcd02815260206004820152601260248201527f4e6f7420757020746f207374616e646172640000000000000000000000000000604482015290519081900360640190fd5b6108d9565b8060ff16600414156108d957336000908152600560205260408120546004916001916108759067ffffffffffffffff168385610426565b60065490915060ff168110156108d5576040805160e560020a62461bcd02815260206004820152601260248201527f4e6f7420757020746f207374616e646172640000000000000000000000000000604482015290519081900360640190fd5b5050505b6108e161125b565b33600090815260056020908152604091829020825160a081018452815467ffffffffffffffff81168252600160a060020a03680100000000000000008204168285015260e060020a900460ff168185015260018201805485518186028101860190965280865291949293606086019392908301828280156109b557602002820191906000526020600020906000905b82829054906101000a900467ffffffffffffffff1667ffffffffffffffff16815260200190600801906020826007010492830192600103820291508084116109705790505b50505091835250506002919091015467ffffffffffffffff90811660209092019190915260408201518251929350916001830191600091829116610bbf5760028054600167ffffffffffffffff700100000000000000000000000000000000808404821692909201160277ffffffffffffffff0000000000000000000000000000000019909116179055610a4761125b565b600160a060020a03888116600090815260056020908152604091829020825160a081018452815467ffffffffffffffff811682526801000000000000000081049095168184015260e060020a90940460ff168484015260018101805484518185028101850190955280855291936060860193909290830182828015610b1f57602002820191906000526020600020906000905b82829054906101000a900467ffffffffffffffff1667ffffffffffffffff1681526020019060080190602082600701049283019260010382029150808411610ada5790505b50505091835250506002919091015467ffffffffffffffff908116602090920191909152815191925016610b8957600254610b7a90700100000000000000000000000000000000900467ffffffffffffffff16336000610db7565b610b82610f00565b9250610bb9565b600254610bb590700100000000000000000000000000000000900467ffffffffffffffff16338a610db7565b8792505b50610bd1565b610bce8560200151848561102c565b91505b60ff84161580610be457508360ff166004145b15610c4457600160a060020a038216600090815260056020526040902054600f67ffffffffffffffff9091161115610c2c57610c258260058560040161102c565b9050610c37565b610c34610f00565b90505b610c4433826016546110d8565b336000818152600560205260409020805460ff60e060020a8083048216600101909116027cff0000000000000000000000000000000000000000000000000000000019909116179055601654610c9c919084906110d8565b50505050505050565b6005602052600090815260409020805460029091015467ffffffffffffffff80831692680100000000000000008104600160a060020a03169260e060020a90910460ff16911684565b60176020526000908152604090205467ffffffffffffffff808216916801000000000000000090041682565b600054600160a060020a03163314610d7c576040805160e560020a62461bcd02815260206004820152600a60248201527f4f6e6c79206f776e657200000000000000000000000000000000000000000000604482015290519081900360640190fd5b600160a060020a03811615610db4576000805473ffffffffffffffffffffffffffffffffffffffff1916600160a060020a0383161790555b50565b600160a060020a03811660009081526005602052604090205467ffffffffffffffff1615610e7b57600160a060020a03818116600081815260056020908152604080832060019081018054918201815584529183206004830401805460039093166008026101000a67ffffffffffffffff81810219909416938a16029290921790915592851681529190912080547fffffffff0000000000000000000000000000000000000000ffffffffffffffff16680100000000000000009092029190911790555b50600160a060020a03166000818152600560209081526040808320805467ffffffffffffffff191667ffffffffffffffff969096169586177cff00000000000000000000000000000000000000000000000000000000191690559382526004905291909120805473ffffffffffffffffffffffffffffffffffffffff19169091179055565b6001805467ffffffffffffffff7401000000000000000000000000000000000000000080830482168401821681027fffffffff0000000000000000ffffffffffffffffffffffffffffffffffffffff90931692909217928390556000926009929004160667ffffffffffffffff1660001415610fe757600280546fffffffffffffffff0000000000000000198116680100000000000000009182900467ffffffffffffffff9081166001018116830291909117928390556011926005929004160667ffffffffffffffff1660058110610fd557fe5b0154600160a060020a03169050611029565b6002805467ffffffffffffffff198116600167ffffffffffffffff9283160182161791829055600791600a91160667ffffffffffffffff16600a8110610fd557fe5b90565b600060015b8360ff1681121561109357600160a060020a03948516600090815260056020526040808220546801000000000000000090049096168082529590205467ffffffffffffffff1661108b57611083610f00565b915050610541565b600101611031565b50600160a060020a03841660009081526005602052604090205460ff80841660e060020a9092041610156110d0576110c9610f00565b9050610541565b509192915050565b600380546fffffffffffffffffffffffffffffffff19811660016fffffffffffffffffffffffffffffffff9283168101831691909117808455600160a060020a0387811660008181526005602081815260408084205496891684526017808352818520805467ffffffffffffffff998a1667ffffffffffffffff19918216179091558d881680875285855283872080549d54909c16875291845282862080546fffffffffffffffff000000000000000019169c8a1668010000000000000000029c909c17909b558085529290915260029097018054988916988616870190951697909717909355925484517f23b872dd0000000000000000000000000000000000000000000000000000000081526004810194909452602484019590955260448301869052925193909216926323b872dd9260648084019391929182900301818387803b15801561122857600080fd5b505af1158015610c9c573d6000803e3d6000fd5b6040518061012001604052806009906020820280388339509192915050565b6040805160a08101825260008082526020820181905291810182905260608082015260808101919091529056fea265627a7a72315820a2449c963ddef515a4bf66e710882336d1afb690ddd39492d0c3b81d3c9efa7e64736f6c63430005110032",
  "source": "pragma solidity ^0.5.1;\r\n\r\nimport './Ownable.sol';\r\nimport './Base.sol';\r\n\r\ncontract RedPocketOfUSDT is Ownable, Base{\r\n  \r\n      // test\r\n    Erc20Token internal _usdtIns;\r\n\r\n    constructor (address[10] memory companyAddress, address[5] memory techAddress, address token, uint256 baseAmount, uint8 fiveCount) Ownable() public {\r\n        _companyAddresses = companyAddress;\r\n        _techAddresses = techAddress;\r\n        _usdtIns = Erc20Token(token);\r\n        _baseAmount = baseAmount;\r\n        _fiveCount = fiveCount;\r\n        for(uint64 i = 0;i<companyAddress.length;i++){\r\n          _uid ++;\r\n          register(_uid,companyAddress[i],address(0));\r\n        }\r\n        for(uint64 i = 0;i<techAddress.length;i++){\r\n          _uid ++;\r\n          register(_uid,techAddress[i],address(0));\r\n        }\r\n    }\r\n\r\n    // struct RedPocket{\r\n    //   uint128 id; // 红包ID\r\n    //   address from; // 红包发送者\r\n    //   address to; // 红包接收者\r\n    //   uint8 level; // 红包的等级\r\n    // }\r\n\r\n    struct Player{\r\n      uint64 id; // 用户ID\r\n      address referer; // 推荐人\r\n      // address lastRecipient; // 上次接收红包的地址\r\n      uint8 level;// 用户级别\r\n      uint64[] directPushs; // 直推人信息\r\n      // uint64[] sendList; // 发出去的红包接收者\r\n      // uint64[] receivedList; // 接收到的红包发送者ID\r\n      uint64 receivedCount;\r\n    }\r\n\r\n    uint64 _rotationId; // 轮循ID，捡漏红包总数 retationId = companyId + techId;\r\n    uint64 _companyId; // 公司轮循ID\r\n    uint64 _techId; // 技术轮循ID\r\n    uint64 public _uid; // 用户总ID\r\n    uint128 public _pid; // 红包总ID\r\n\r\n    mapping(uint64=>address) public _playerMap; // 以id为key存储id和地址的对应关系\r\n    mapping(address=>Player) public _players;// 以address为key存储用户的信息\r\n\r\n    // mapping(address=>uint64[]) msg.senders; // 某个地址发送的所有红包地址，1个人最多发送11个红包，可以按照下标来获取上级推荐人\r\n    // mapping(address=>uint64[]) _recipients; // 某个地址接收的所有红包地址\r\n    // uint256 public _baseUnit = 10 ** 6; // USDT精度\r\n    uint8 constant private _companyCount = 10; // 公司地址数量\r\n    uint8 constant private _techCount = 5; // 技术地址数量\r\n    uint8 constant private _addressCount = _companyCount + _techCount;// 总的捡漏地址数量\r\n    uint8 constant private _companyRate = 9; // 公司地址捡漏比例 9 代表 9:1\r\n    uint8 private _fiveCount; // 5级达标人数\r\n    // uint256 public _techFee = (30 / 10000) * 10 ** 18 ; // 技术服务费（万分位）\r\n\r\n    address[10] private _companyAddresses; // 公司合约地址\r\n    address[5] private _techAddresses; // 技术分红地址\r\n    uint256 public _baseAmount; // 游戏基数\r\n\r\n    struct RedPocket{\r\n      uint64 from; // 红包发送者\r\n      uint64 to; // 红包接收者\r\n    }\r\n\r\n    mapping(uint128=>RedPocket) public _redPocketMap;\r\n    \r\n    // address payable receiver = address(this);\r\n\r\n    function setBaseAmount(uint256 baseAmount) onlyOwner public {\r\n      _baseAmount = baseAmount;\r\n    }\r\n\r\n    /**\r\n     * 发送红包\r\n     * 推荐人\r\n     */\r\n    function sendPocket(address  refAddress) canUpgrade() public payable {\r\n      Player memory player = _players[msg.sender];\r\n      \r\n      // id = 0, 表示用户不存在，id > 0 && 小于等于 15 表示是技术分红地址\r\n      // require(_player.id == 0 || _player.id > 15,\"illegal address\")\r\n      // 当前玩家星级，0级、4级分别需要查到上面第5级和第9级的用户\r\n      uint8 level = player.level;\r\n      uint8 nextLevel = level + 1;\r\n\r\n      address recipient;\r\n      address fiveReferer;\r\n      // 代表该玩家不存在\r\n      if(player.id == 0){\r\n        // 玩家数量加1\r\n        _uid ++;\r\n        Player memory referer = _players[refAddress];\r\n        // 如果推荐人是0地址则代表没有推荐人\r\n        if(referer.id == 0){\r\n          register(_uid,msg.sender,address(0));\r\n          recipient = getRotationAddress();\r\n        } else {\r\n          register(_uid,msg.sender,refAddress);\r\n          recipient = refAddress;\r\n        }\r\n      }else{\r\n        recipient = getNextLevelRecipient(player.referer, nextLevel, nextLevel);\r\n      }\r\n      if(level == 0 || level == 4){\r\n        if(_players[recipient].id > _addressCount){\r\n          // 升1级和升5级，要给5级和9级红包，相当于是上一级0->1、4->5，再加4处理\r\n          // 直接用下一级的接收者+4，可以节省前面轮循的4次\r\n          fiveReferer = getNextLevelRecipient(recipient, 5, nextLevel + 4);\r\n        }else{\r\n          fiveReferer = getRotationAddress();\r\n        }\r\n        // 转账给5级接收者\r\n        transfer(msg.sender,fiveReferer, _baseAmount);\r\n      }\r\n      // 用户升一级\r\n      _players[msg.sender].level += 1;\r\n      // 转账给接收者\r\n      transfer(msg.sender,recipient, _baseAmount);\r\n      // this.send(_techFee);\r\n    }\r\n\r\n    function transfer(address from, address to ,uint value) private {\r\n      _pid ++;\r\n      // _players[from].sendList.push(_players[to].id);\r\n      // _players[to].receivedList.push(_players[from].id);\r\n      _redPocketMap[_pid].from = _players[from].id;\r\n      _redPocketMap[_pid].to = _players[to].id;\r\n      _players[to].receivedCount+=1;\r\n      _usdtIns.transferFrom(from, to, value);\r\n    }\r\n\r\n    /**\r\n    * 检查玩家是否可以升级\r\n     */\r\n    modifier canUpgrade(){\r\n      uint8 level = _players[msg.sender].level;\r\n      // ETH版本需要打开这个验证\r\n      // if(level==0 || level == 4){\r\n      //   require(msg.value == _baseAmount*2, \"The amount is wrong\");\r\n      // }\r\n      if(level == 1){\r\n        // 推荐3个玩家\r\n        require(_players[msg.sender].directPushs.length >= 3, \"Not up to standard\");\r\n      }else if(level == 4){\r\n        // 下线已经推荐了81个玩家\r\n        uint8 maxDepth = 4; // 最大深度，即往下查几代\r\n        uint8 depth = 1;\r\n        uint256 count = statisticDirectPushCount(_players[msg.sender].id,depth,maxDepth);\r\n        require(count >= _fiveCount, \"Not up to standard\");\r\n      }      \r\n      _;\r\n    }\r\n\r\n    /**\r\n    * 递归函数，查询一个地址下面人脉数\r\n    * uid 玩家ID\r\n    * depth 传入玩家的相对深度\r\n    * maxDepth 查询的最大深度\r\n    */\r\n    function statisticDirectPushCount(uint64 uid,uint8 depth,uint8 maxDepth) view public returns(uint256){\r\n      uint64[] memory arr = _players[_playerMap[uid]].directPushs;\r\n      uint256 count = arr.length;\r\n      if(depth >= maxDepth || count == 0){\r\n        return count;\r\n      }\r\n      depth ++ ;\r\n      for(uint8 i = 0; i < arr.length ; i++){\r\n        count = count + statisticDirectPushCount(arr[i], depth, maxDepth);\r\n      }\r\n      return count;\r\n    }\r\n\r\n    /**\r\n    * [0]玩家ID\r\n    * [1]玩家邀请人\r\n    * [2]玩家等级level\r\n    * [3]玩家直推人[]\r\n    * [4]人脉总数\r\n    * [5]各级人数[]\r\n    * [6]发送出去的红包接收者[]\r\n    * [7]收到的红包发送者[]\r\n     */\r\n    // function getPlayerInfo() view public returns(uint64,address,uint8,uint64[] memory,uint256,uint256[9] memory,uint64[] memory,uint64[] memory){\r\n    function getPlayerInfo() view public returns(uint64,address,uint8,uint64[] memory,uint256,uint256[9] memory,uint64){\r\n      Player memory player = _players[msg.sender];\r\n      // 获取9个等级的人数\r\n      uint256[9] memory levelCount;\r\n      uint256 totalCount = 0;\r\n      uint256 count;\r\n      for(uint8 i = 1; i <= 9; i++){\r\n        count = statisticDirectPushCount(player.id, 1, i);\r\n        count = count - totalCount;\r\n        levelCount[i-1] = count;\r\n        totalCount += count;\r\n      }\r\n      // return (player.id,player.referer,player.level,player.directPushs,totalCount,levelCount,player.sendList,player.receivedList);\r\n      return (player.id,player.referer,player.level,player.directPushs,totalCount,levelCount,player.receivedCount);\r\n    }\r\n\r\n    /**\r\n    * 获取下一级接收者\r\n    * addr 该玩家的推荐人地址（省一个轮循）\r\n    * level 玩家的下一级别\r\n    * standardLevel 接收者的级别要求\r\n     */\r\n    function getNextLevelRecipient(address addr ,uint8 level,uint8 standardLevel) private returns(address){\r\n      for(int i = 1 ;i < level; i++){\r\n        addr = _players[addr].referer;\r\n        if(_players[addr].id == 0){\r\n          // 获取捡漏地址\r\n          return getRotationAddress();\r\n        }\r\n      }\r\n      if(_players[addr].level < standardLevel){\r\n        return getRotationAddress();\r\n      }\r\n      return addr;\r\n    }\r\n\r\n    // 注册玩家信息\r\n    function register(uint64 uid, address sender, address referer) private {\r\n      // uint64[] memory arr;\r\n      if(_players[referer].id != 0){\r\n        _players[referer].directPushs.push(uid);\r\n        _players[sender].referer = referer;\r\n      }\r\n      // Player memory player = Player(uid,referer,1,arr);\r\n      _players[sender].id = uid;\r\n      _players[sender].level = 0;\r\n      _playerMap[uid]=sender;\r\n    }\r\n\r\n    /**\r\n    * 获取轮循库中的地址\r\n    */\r\n    function getRotationAddress() private returns(address){\r\n      _rotationId ++;\r\n      // 一个技术地址得红包\r\n      if(_rotationId % _companyRate == 0){\r\n        _techId ++;\r\n        return _techAddresses[_techId % _techCount];\r\n      }else{\r\n        _companyId ++;\r\n        return _companyAddresses[_companyId % _companyCount];\r\n      }\r\n    }\r\n\r\n    function () external payable {}\r\n}",
  "sourcePath": "D:/projects/github/solidity/red-pocket/contracts/RedPocketOfUSDT.sol",
  "compiler": {
    "name": "solc",
    "version": "0.5.17+commit.d19bba13.Emscripten.clang"
  },
  "schemaVersion": "3.2.5",
  "updatedAt": "2021-01-19T11:18:40.407Z",
  "devdoc": {
    "methods": {
      "transferOwnership(address)": {
        "details": "Allows the current owner to transfer control of the contract to a newOwner.",
        "params": {
          "newOwner": "The address to transfer ownership to."
        }
      }
    }
  },
  "userdoc": {
    "methods": {
      "getPlayerInfo()": {
        "notice": "[0]玩家ID [1]玩家邀请人 [2]玩家等级level [3]玩家直推人[] [4]人脉总数 [5]各级人数[] [6]发送出去的红包接收者[] [7]收到的红包发送者[]"
      },
      "sendPocket(address)": {
        "notice": "发送红包 推荐人"
      },
      "statisticDirectPushCount(uint64,uint8,uint8)": {
        "notice": "递归函数，查询一个地址下面人脉数 uid 玩家ID depth 传入玩家的相对深度 maxDepth 查询的最大深度"
      }
    }
  }
}