{
  "contractName": "RedPocket",
  "abi": [
    {
      "inputs": [
        {
          "internalType": "address[10]",
          "name": "companyAddress",
          "type": "address[10]"
        },
        {
          "internalType": "address[5]",
          "name": "techAddress",
          "type": "address[5]"
        }
      ],
      "payable": false,
      "stateMutability": "nonpayable",
      "type": "constructor"
    },
    {
      "payable": true,
      "stateMutability": "payable",
      "type": "fallback"
    },
    {
      "constant": true,
      "inputs": [],
      "name": "_baseAmount",
      "outputs": [
        {
          "internalType": "uint256",
          "name": "",
          "type": "uint256"
        }
      ],
      "payable": false,
      "stateMutability": "view",
      "type": "function"
    },
    {
      "constant": true,
      "inputs": [],
      "name": "_baseUnit",
      "outputs": [
        {
          "internalType": "uint256",
          "name": "",
          "type": "uint256"
        }
      ],
      "payable": false,
      "stateMutability": "view",
      "type": "function"
    },
    {
      "constant": true,
      "inputs": [],
      "name": "_techFee",
      "outputs": [
        {
          "internalType": "uint256",
          "name": "",
          "type": "uint256"
        }
      ],
      "payable": false,
      "stateMutability": "view",
      "type": "function"
    },
    {
      "constant": true,
      "inputs": [],
      "name": "_uid",
      "outputs": [
        {
          "internalType": "uint64",
          "name": "",
          "type": "uint64"
        }
      ],
      "payable": false,
      "stateMutability": "view",
      "type": "function"
    },
    {
      "constant": true,
      "inputs": [],
      "name": "owner",
      "outputs": [
        {
          "internalType": "address",
          "name": "",
          "type": "address"
        }
      ],
      "payable": false,
      "stateMutability": "view",
      "type": "function"
    },
    {
      "constant": false,
      "inputs": [
        {
          "internalType": "address",
          "name": "newOwner",
          "type": "address"
        }
      ],
      "name": "transferOwnership",
      "outputs": [],
      "payable": false,
      "stateMutability": "nonpayable",
      "type": "function"
    },
    {
      "constant": false,
      "inputs": [
        {
          "internalType": "address",
          "name": "refAddress",
          "type": "address"
        }
      ],
      "name": "sendPocket",
      "outputs": [],
      "payable": true,
      "stateMutability": "payable",
      "type": "function"
    },
    {
      "constant": false,
      "inputs": [
        {
          "internalType": "uint64[]",
          "name": "arr",
          "type": "uint64[]"
        },
        {
          "internalType": "uint8",
          "name": "depth",
          "type": "uint8"
        },
        {
          "internalType": "uint8",
          "name": "maxDepth",
          "type": "uint8"
        }
      ],
      "name": "statisticDirectPushCount",
      "outputs": [
        {
          "internalType": "uint64",
          "name": "",
          "type": "uint64"
        }
      ],
      "payable": false,
      "stateMutability": "nonpayable",
      "type": "function"
    },
    {
      "constant": true,
      "inputs": [],
      "name": "getPlayerInfo",
      "outputs": [
        {
          "internalType": "uint64",
          "name": "",
          "type": "uint64"
        },
        {
          "internalType": "address",
          "name": "",
          "type": "address"
        },
        {
          "internalType": "uint8",
          "name": "",
          "type": "uint8"
        }
      ],
      "payable": false,
      "stateMutability": "view",
      "type": "function"
    }
  ],
  "bytecode": "0x6080604052620f4240600555660aa87bee538000600655629896806016553480156200002a57600080fd5b506040516200115c3803806200115c83398181016040526101e08110156200005157600080fd5b5060008054600160a060020a03191633179055610140810162000078600783600a62000091565b50620000886011826005620000ee565b50505062000162565b82600a8101928215620000dc579160200282015b82811115620000dc5782518254600160a060020a031916600160a060020a03909116178255602090920191600190910190620000a5565b50620000ea92915062000138565b5090565b8260058101928215620000dc5791602002820182811115620000dc5782518254600160a060020a031916600160a060020a03909116178255602090920191600190910190620000a5565b6200015f91905b80821115620000ea578054600160a060020a03191681556001016200013f565b90565b610fea80620001726000396000f3fe60806040526004361061008a5760003560e060020a900480638da5cb5b1161005d5780638da5cb5b1461010f578063cbbe7aed14610140578063d1df81df14610200578063da9c8e8a14610249578063f2fde38b1461026f5761008a565b80631908c9311461008c57806338e2e753146100b35780634ddfae4b146100e557806374bf473e146100fa575b005b34801561009857600080fd5b506100a16102a2565b60408051918252519081900360200190f35b3480156100bf57600080fd5b506100c86102a8565b6040805167ffffffffffffffff9092168252519081900360200190f35b3480156100f157600080fd5b506100a16102cc565b34801561010657600080fd5b506100a16102d2565b34801561011b57600080fd5b506101246102d8565b60408051600160a060020a039092168252519081900360200190f35b34801561014c57600080fd5b506100c86004803603606081101561016357600080fd5b81019060208101813564010000000081111561017e57600080fd5b82018360208201111561019057600080fd5b803590602001918460208302840111640100000000831117156101b257600080fd5b9190808060200260200160405190810160405280939291908181526020018383602002808284376000920191909152509295505060ff83358116945060209093013590921691506102e79050565b34801561020c57600080fd5b5061021561045d565b6040805167ffffffffffffffff9094168452600160a060020a03909216602084015260ff1682820152519081900360600190f35b61008a6004803603602081101561025f57600080fd5b5035600160a060020a0316610562565b34801561027b57600080fd5b5061008a6004803603602081101561029257600080fd5b5035600160a060020a0316610acc565b60055481565b600154700100000000000000000000000000000000900467ffffffffffffffff1681565b60165481565b60065481565b600054600160a060020a031681565b60008160ff168360ff1611156102ff57506000610456565b6001909201916000805b85518160ff1610156104525761031d610eaf565b60046000600360008a8660ff168151811061033457fe5b60209081029190910181015167ffffffffffffffff9081168352828201939093526040918201600090812054600160a060020a039081168652858301969096529382019093208151608081018352815493841681526801000000000000000084049095168585015260e060020a90920460ff1684820152600182018054825181860281018601909352808352929360608601939083018282801561042b57602002820191906000526020600020906000905b82829054906101000a900467ffffffffffffffff1667ffffffffffffffff16815260200190600801906020826007010492830192600103820291508084116103e65790505b5050505050815250509050610445816060015187876102e7565b9092019150600101610309565b5090505b9392505050565b600080600061046a610eaf565b336000908152600460209081526040918290208251608081018452815467ffffffffffffffff81168252600160a060020a03680100000000000000008204168285015260e060020a900460ff1681850152600182018054855181860281018601909652808652919492936060860193929083018282801561053e57602002820191906000526020600020906000905b82829054906101000a900467ffffffffffffffff1667ffffffffffffffff16815260200190600801906020826007010492830192600103820291508084116104f95790505b50505091909252505081516020830151604090930151909792965094509092505050565b61056a610eaf565b336000908152600460209081526040918290208251608081018452815467ffffffffffffffff81168252600160a060020a03680100000000000000008204168285015260e060020a900460ff1681850152600182018054855181860281018601909652808652919492936060860193929083018282801561063e57602002820191906000526020600020906000905b82829054906101000a900467ffffffffffffffff1667ffffffffffffffff16815260200190600801906020826007010492830192600103820291508084116105f95790505b5050505050815250509050606081606001519050600081519050826040015160ff16600114156106de576003825110156106d957604080517f08c379a000000000000000000000000000000000000000000000000000000000815260206004820152601260248201527f4e6f7420757020746f207374616e646172640000000000000000000000000000604482015290519081900360640190fd5b610780565b826040015160ff1660041415610780576000600460016106ff8582846102e7565b8401925060518367ffffffffffffffff161161077c57604080517f08c379a000000000000000000000000000000000000000000000000000000000815260206004820152601260248201527f4e6f7420757020746f207374616e646172640000000000000000000000000000604482015290519081900360640190fd5b5050505b610788610eaf565b336000908152600460209081526040918290208251608081018452815467ffffffffffffffff81168252600160a060020a03680100000000000000008204168285015260e060020a900460ff1681850152600182018054855181860281018601909652808652919492936060860193929083018282801561085c57602002820191906000526020600020906000905b82829054906101000a900467ffffffffffffffff1667ffffffffffffffff16815260200190600801906020826007010492830192600103820291508084116108175790505b505050505081525050905061086f610eaf565b600160a060020a038681166000908152600460209081526040918290208251608081018452815467ffffffffffffffff811682526801000000000000000081049095168184015260e060020a90940460ff16848401526001810180548451818502810185019095528085529193606086019390929083018282801561094757602002820191906000526020600020906000905b82829054906101000a900467ffffffffffffffff1667ffffffffffffffff16815260200190600801906020826007010492830192600103820291508084116109025790505b5050509190925250505060408301518351919250906001820190600090819067ffffffffffffffff16610a4d576001805467ffffffffffffffff7001000000000000000000000000000000008083048216840182160277ffffffffffffffff0000000000000000000000000000000019909216919091179091558551166109d7576109d0610b1e565b91506109db565b8991505b845167ffffffffffffffff1615610a1c57600154610a1790700100000000000000000000000000000000900467ffffffffffffffff168b610c45565b610a48565b600154610a4890700100000000000000000000000000000000900467ffffffffffffffff166000610c45565b610a5c565b610a5933846005610d3f565b91505b60ff84161580610a6f57508360ff166004145b15610ac057600160a060020a038216600090815260046020526040902054600f67ffffffffffffffff9091161115610ab557610aae8260046009610d3f565b9050610ac0565b610abd610b1e565b90505b50505050505050505050565b600054600160a060020a03163314610ae357600080fd5b600160a060020a03811615610b1b576000805473ffffffffffffffffffffffffffffffffffffffff1916600160a060020a0383161790555b50565b600080547fffffffff0000000000000000ffffffffffffffffffffffffffffffffffffffff8116740100000000000000000000000000000000000000009182900467ffffffffffffffff90811660010181168302919091178084556050929004160667ffffffffffffffff1660001415610c01576001805467ffffffffffffffff6801000000000000000080830482168401821681026fffffffffffffffff00000000000000001990931692909217928390556011926005929004160667ffffffffffffffff1660058110610bef57fe5b0154600160a060020a03169050610c42565b6001805467ffffffffffffffff19811667ffffffffffffffff918216830182161791829055600791600a91160667ffffffffffffffff16600a8110610bef57fe5b90565b6060610c4f610eaf565b506040805160808101825267ffffffffffffffff8581168252600160a060020a0385811660208085019182526001858701818152606087018981523360009081526004855298909820875181549551925167ffffffffffffffff199096169716969096177fffffffff0000000000000000000000000000000000000000ffffffffffffffff16680100000000000000009190951602939093177fffffff00ffffffffffffffffffffffffffffffffffffffffffffffffffffffff1660e060020a60ff909316929092029190911783559351805193948594610d369385019290910190610ed5565b50505050505050565b6000805b8360ff16811215610e6a57610d56610eaf565b600160a060020a038681166000908152600460209081526040918290208251608081018452815467ffffffffffffffff811682526801000000000000000081049095168184015260e060020a90940460ff168484015260018101805484518185028101850190955280855291936060860193909290830182828015610e2e57602002820191906000526020600020906000905b82829054906101000a900467ffffffffffffffff1667ffffffffffffffff1681526020019060080190602082600701049283019260010382029150808411610de95790505b50505091909252505081519192505067ffffffffffffffff16610e5c57610e53610b1e565b92505050610456565b602001519450600101610d43565b50600160a060020a03841660009081526004602052604090205460ff80841660e060020a909204161015610ea757610ea0610b1e565b9050610456565b509192915050565b604080516080810182526000808252602082018190529181019190915260608082015290565b82805482825590600052602060002090600301600490048101928215610f805791602002820160005b83821115610f4a57835183826101000a81548167ffffffffffffffff021916908367ffffffffffffffff1602179055509260200192600801602081600701049283019260010302610efe565b8015610f7e5782816101000a81549067ffffffffffffffff0219169055600801602081600701049283019260010302610f4a565b505b50610f8c929150610f90565b5090565b610c4291905b80821115610f8c57805467ffffffffffffffff19168155600101610f9656fea265627a7a72315820c02a7df7d08e799f09a381057b968d1fc51c8d2b1fa150dfd93bc569bdf3bec064736f6c63430005100032",
  "source": "pragma solidity ^0.5.1;\r\n\r\nimport './Ownable.sol';\r\nimport './Base.sol';\r\n\r\ncontract RedPocket is Ownable, Base{\r\n  \r\n    constructor (address[10] memory companyAddress, address[5] memory techAddress) Ownable() public {\r\n        _companyAddresses = companyAddress;\r\n        _techAddresses = techAddress;\r\n    }\r\n\r\n    // struct RedPocket{\r\n    //   uint128 id; // 红包ID\r\n    //   address from; // 红包发送者\r\n    //   address to; // 红包接收者\r\n    //   uint8 level; // 红包的等级\r\n    // }\r\n\r\n    struct Player{\r\n      uint64 id; // 用户ID\r\n      address referer; // 推荐人\r\n      // address lastRecipient; // 上次接收红包的地址\r\n      uint8 level;// 用户级别\r\n      uint64[] directPushs; // 直推人信息\r\n    }\r\n\r\n    uint64 _rotationId; // 轮循ID，捡漏红包总数 retationId = companyId + techId;\r\n    uint64 _companyId; // 公司轮循ID\r\n    uint64 _techId; // 技术轮循ID\r\n    uint64 public _uid; // 用户总ID\r\n    uint128 _pid; // 红包总ID\r\n\r\n    mapping(uint64=>address) _playerMap; // 以id为key存储id和地址的对应关系\r\n    mapping(address=>Player) _players;// 以address为key存储用户的信息\r\n\r\n    // mapping(address=>uint64[]) msg.senders; // 某个地址发送的所有红包地址，1个人最多发送11个红包，可以按照下标来获取上级推荐人\r\n    // mapping(address=>uint64[]) _recipients; // 某个地址接收的所有红包地址\r\n    uint256 public _baseUnit = 10 ** 6; // USDT精度\r\n    uint8 constant private _companyCount = 10; // 公司地址数量\r\n    uint8 constant private _techCount = 5; // 技术地址数量\r\n    uint8 constant private _addressCount = _companyCount + _techCount;// 总的捡漏地址数量\r\n    uint8 constant private _companyRate = 80; // 公司收益比例 80%\r\n    uint8 constant private _techRate = 20; // 技术收益比例 20%\r\n    uint256 public _techFee = (30 / 10000) * 10 ** 18 ; // 技术服务费（万分位）\r\n\r\n    address[10] private _companyAddresses; // 公司合约地址\r\n    address[5] private _techAddresses; // 技术分红地址\r\n    uint256 public _baseAmount = 10 * _baseUnit; // 游戏基数（10USDT）\r\n    // address payable receiver = address(this);\r\n    /**\r\n     * 发送红包\r\n     * 推荐人\r\n     */\r\n    function sendPocket(address  refAddress) canUpgrade() public payable {\r\n      Player memory player = _players[msg.sender];\r\n      Player memory referer = _players[refAddress];\r\n      // id = 0, 表示用户不存在，id > 0 && 小于等于 15 表示是技术分红地址\r\n      // require(_player.id == 0 || _player.id > 15,\"illegal address\")\r\n      // 当前玩家星级，0级、4级分别需要查到上面第5级和第9级的用户\r\n      uint8 level = player.level;\r\n      uint8 nextLevel = level + 1;\r\n\r\n      address recipient;\r\n      address fiveReferer;\r\n      // 代表该玩家不存在\r\n      if(player.id == 0){\r\n        // 玩家数量加1\r\n        _uid ++;\r\n        // 如果推荐人是0地址则代表没有推荐人\r\n        if(referer.id == 0){\r\n          recipient = getRotationAddress();\r\n        } else {\r\n          recipient = refAddress;\r\n        }\r\n        // 发送给推荐人1个，发送给上面第5级一个\r\n        if(referer.id > 0){\r\n          register(_uid,refAddress);\r\n        }else{\r\n          register(_uid,address(0));\r\n        }\r\n      }else{\r\n        recipient = getNextLevelRecipient(msg.sender, nextLevel, 5);\r\n      }\r\n      if(level == 0 || level == 4){\r\n        if(_players[recipient].id > _addressCount){\r\n          // 升1级和升5级，要给5级和9级红包，相当于是上一级0->1、4->5，再加4处理\r\n          fiveReferer = getNextLevelRecipient(recipient, 4, 9);\r\n        }else{\r\n          fiveReferer = getRotationAddress();\r\n        }\r\n        // 转账给5级接收者\r\n        // _usdtIns.transfer(fiveReferer, _baseAmount);\r\n      }\r\n      // 转账给接收者\r\n      // _usdtIns.transfer(recipient, _baseAmount);\r\n      // 扣除ETH手续费\r\n      // address(uint160(address(this))).transfer(_techFee);\r\n      // address(uint160(recipient)).transfer(_techFee);\r\n    }\r\n\r\n    /**\r\n    * 检查玩家是否可以升级\r\n     */\r\n    modifier canUpgrade(){\r\n      Player memory player = _players[msg.sender];\r\n      uint64[] memory arr = player.directPushs;\r\n      uint64 len = uint64(arr.length);\r\n      if(player.level == 1){\r\n        // 推荐3个玩家\r\n        require(arr.length >= 3, \"Not up to standard\");\r\n      }else if(player.level == 4){\r\n        // 下线已经推荐了81个玩家\r\n        uint64 count = 0;\r\n        uint8 maxDepth = 4; // 最大深度，即往下查几代\r\n        uint8 depth = 1;\r\n        count = len + statisticDirectPushCount(arr,1,4);\r\n        require(count > 81, \"Not up to standard\");\r\n      }\r\n      _;\r\n    }\r\n\r\n    /**\r\n    * 递归函数，查询一个地址下面所有直推人\r\n    * arr 玩家ID（uid）集合\r\n    * depth 传入玩家的相对深度\r\n    * 查询的最大深度\r\n    */\r\n    function statisticDirectPushCount(uint64[] memory arr,uint8 depth,uint8 maxDepth) public returns(uint64){\r\n      if(depth > maxDepth){\r\n        return 0;\r\n      }\r\n      depth ++ ;\r\n      uint64 count = 0;\r\n      for(uint8 i = 0; i < arr.length ; i++){\r\n        Player memory dpPlayer = _players[_playerMap[arr[i]]];\r\n        count = count + statisticDirectPushCount(dpPlayer.directPushs, depth, maxDepth);\r\n      }\r\n      return count;\r\n    }\r\n\r\n    function getPlayerInfo() view public returns(uint64,address,uint8){\r\n      Player memory player = _players[msg.sender];\r\n      // uint256[] memory temp = new uint256[](4);\r\n      // temp[0] = player.id; // 用户ID\r\n      // temp[1] = uint160(player.referer); // 推荐人地址\r\n      // temp[2] = player.level; // 用户等级\r\n      // temp[3] = player.level == 0 || player.level == 4 ? _baseAmount * 2 : _baseAmount;\r\n      return (player.id,player.referer,player.level);\r\n    }\r\n\r\n    /**\r\n    * 获取下一级接收者\r\n     */\r\n    function getNextLevelRecipient(address addr ,uint8 level,uint8 standardLevel) private returns(address){\r\n      for(int i = 0 ;i < level; i++){\r\n          Player memory player = _players[addr];\r\n          if(player.id == 0){\r\n            // 获取捡漏地址\r\n            return getRotationAddress();\r\n          }\r\n          addr = player.referer;\r\n      }\r\n      if(_players[addr].level < standardLevel){\r\n        return getRotationAddress();\r\n      }\r\n      return addr;\r\n    }\r\n\r\n    // 注册玩家信息\r\n    function register(uint64 uid, address referer) private {\r\n      uint64[] memory arr;\r\n      Player memory player = Player(uid,referer,1,arr);\r\n      _players[msg.sender] = player;\r\n    }\r\n\r\n    /**\r\n    * 获取轮循库中的地址\r\n    */\r\n    function getRotationAddress() private returns(address){\r\n      _rotationId ++;\r\n      // 一个技术地址得红包\r\n      if(_rotationId % _companyRate == 0){\r\n        _techId ++;\r\n        return _techAddresses[_techId % _techCount];\r\n      }else{\r\n        _companyId ++;\r\n        return _companyAddresses[_companyId % _companyCount];\r\n      }\r\n    }\r\n\r\n    function () external payable {}\r\n}",
  "sourcePath": "D:/projects/hot-pocket/contracts/RedPocket.sol",
  "compiler": {
    "name": "solc",
    "version": "0.5.16+commit.9c3226ce.Emscripten.clang"
  },
  "schemaVersion": "3.2.5",
  "updatedAt": "2021-01-04T08:10:12.622Z",
  "networkType": "ethereum",
  "devdoc": {
    "methods": {
      "transferOwnership(address)": {
        "details": "Allows the current owner to transfer control of the contract to a newOwner.",
        "params": {
          "newOwner": "The address to transfer ownership to."
        }
      }
    }
  },
  "userdoc": {
    "methods": {
      "sendPocket(address)": {
        "notice": "发送红包 推荐人"
      },
      "statisticDirectPushCount(uint64[],uint8,uint8)": {
        "notice": "递归函数，查询一个地址下面所有直推人 arr 玩家ID（uid）集合 depth 传入玩家的相对深度 查询的最大深度"
      }
    }
  }
}