{
  "contractName": "RedPocketOfUSDT",
  "abi": [
    {
      "inputs": [
        {
          "internalType": "address[10]",
          "name": "companyAddress",
          "type": "address[10]"
        },
        {
          "internalType": "address[5]",
          "name": "techAddress",
          "type": "address[5]"
        },
        {
          "internalType": "address",
          "name": "token",
          "type": "address"
        },
        {
          "internalType": "uint256",
          "name": "baseAmount",
          "type": "uint256"
        }
      ],
      "payable": false,
      "stateMutability": "nonpayable",
      "type": "constructor"
    },
    {
      "payable": true,
      "stateMutability": "payable",
      "type": "fallback"
    },
    {
      "constant": true,
      "inputs": [],
      "name": "_baseAmount",
      "outputs": [
        {
          "internalType": "uint256",
          "name": "",
          "type": "uint256"
        }
      ],
      "payable": false,
      "stateMutability": "view",
      "type": "function"
    },
    {
      "constant": true,
      "inputs": [],
      "name": "_baseUnit",
      "outputs": [
        {
          "internalType": "uint256",
          "name": "",
          "type": "uint256"
        }
      ],
      "payable": false,
      "stateMutability": "view",
      "type": "function"
    },
    {
      "constant": true,
      "inputs": [],
      "name": "_pid",
      "outputs": [
        {
          "internalType": "uint128",
          "name": "",
          "type": "uint128"
        }
      ],
      "payable": false,
      "stateMutability": "view",
      "type": "function"
    },
    {
      "constant": true,
      "inputs": [
        {
          "internalType": "uint64",
          "name": "",
          "type": "uint64"
        }
      ],
      "name": "_playerMap",
      "outputs": [
        {
          "internalType": "address",
          "name": "",
          "type": "address"
        }
      ],
      "payable": false,
      "stateMutability": "view",
      "type": "function"
    },
    {
      "constant": true,
      "inputs": [
        {
          "internalType": "address",
          "name": "",
          "type": "address"
        }
      ],
      "name": "_players",
      "outputs": [
        {
          "internalType": "uint64",
          "name": "id",
          "type": "uint64"
        },
        {
          "internalType": "address",
          "name": "referer",
          "type": "address"
        },
        {
          "internalType": "uint8",
          "name": "level",
          "type": "uint8"
        }
      ],
      "payable": false,
      "stateMutability": "view",
      "type": "function"
    },
    {
      "constant": true,
      "inputs": [
        {
          "internalType": "uint128",
          "name": "",
          "type": "uint128"
        }
      ],
      "name": "_redPocketMap",
      "outputs": [
        {
          "internalType": "uint64",
          "name": "from",
          "type": "uint64"
        },
        {
          "internalType": "uint64",
          "name": "to",
          "type": "uint64"
        }
      ],
      "payable": false,
      "stateMutability": "view",
      "type": "function"
    },
    {
      "constant": true,
      "inputs": [],
      "name": "_techFee",
      "outputs": [
        {
          "internalType": "uint256",
          "name": "",
          "type": "uint256"
        }
      ],
      "payable": false,
      "stateMutability": "view",
      "type": "function"
    },
    {
      "constant": true,
      "inputs": [],
      "name": "_uid",
      "outputs": [
        {
          "internalType": "uint64",
          "name": "",
          "type": "uint64"
        }
      ],
      "payable": false,
      "stateMutability": "view",
      "type": "function"
    },
    {
      "constant": true,
      "inputs": [],
      "name": "owner",
      "outputs": [
        {
          "internalType": "address",
          "name": "",
          "type": "address"
        }
      ],
      "payable": false,
      "stateMutability": "view",
      "type": "function"
    },
    {
      "constant": false,
      "inputs": [
        {
          "internalType": "address",
          "name": "newOwner",
          "type": "address"
        }
      ],
      "name": "transferOwnership",
      "outputs": [],
      "payable": false,
      "stateMutability": "nonpayable",
      "type": "function"
    },
    {
      "constant": false,
      "inputs": [
        {
          "internalType": "uint256",
          "name": "baseAmount",
          "type": "uint256"
        }
      ],
      "name": "setBaseAmount",
      "outputs": [],
      "payable": false,
      "stateMutability": "nonpayable",
      "type": "function"
    },
    {
      "constant": false,
      "inputs": [
        {
          "internalType": "address",
          "name": "refAddress",
          "type": "address"
        }
      ],
      "name": "sendPocket",
      "outputs": [],
      "payable": true,
      "stateMutability": "payable",
      "type": "function"
    },
    {
      "constant": true,
      "inputs": [
        {
          "internalType": "uint64",
          "name": "uid",
          "type": "uint64"
        },
        {
          "internalType": "uint8",
          "name": "depth",
          "type": "uint8"
        },
        {
          "internalType": "uint8",
          "name": "maxDepth",
          "type": "uint8"
        }
      ],
      "name": "statisticDirectPushCount",
      "outputs": [
        {
          "internalType": "uint256",
          "name": "",
          "type": "uint256"
        }
      ],
      "payable": false,
      "stateMutability": "view",
      "type": "function"
    },
    {
      "constant": true,
      "inputs": [],
      "name": "getPlayerInfo",
      "outputs": [
        {
          "internalType": "uint64",
          "name": "",
          "type": "uint64"
        },
        {
          "internalType": "address",
          "name": "",
          "type": "address"
        },
        {
          "internalType": "uint8",
          "name": "",
          "type": "uint8"
        },
        {
          "internalType": "uint64[]",
          "name": "",
          "type": "uint64[]"
        },
        {
          "internalType": "uint256",
          "name": "",
          "type": "uint256"
        },
        {
          "internalType": "uint256[9]",
          "name": "",
          "type": "uint256[9]"
        }
      ],
      "payable": false,
      "stateMutability": "view",
      "type": "function"
    }
  ],
  "bytecode": "0x6080604052620f4240600655660aa87bee5380006007553480156200002357600080fd5b50604051620015ee380380620015ee83398181016040526102208110156200004a57600080fd5b506101e081015161020082015160008054600160a060020a03191633179055610140830191906200007f600885600a620002ec565b506200008f601284600562000349565b5060018054600160a060020a031916600160a060020a038416179055601781905560005b600a816001604060020a0316101562000141576002805460016001604060020a0370010000000000000000000000000000000080840482169290920181168202608060020a60c060020a0319909316929092179283905562000138920481169087908416600a81106200012257fe5b60200201516000640100000000620001c8810204565b600101620000b3565b5060005b6005816001604060020a03161015620001bd576002805460016001604060020a0370010000000000000000000000000000000080840482169290920181168202608060020a60c060020a03199093169290921792839055620001b4920481169086908416600581106200012257fe5b60010162000145565b5050505050620003bd565b600160a060020a0381166000908152600560205260409020546001604060020a0316156200028b57600160a060020a03818116600081815260056020908152604080832060019081018054918201815584529183206004830401805460039093166008026101000a6001604060020a0381810219909416938a16029290921790915592851681529190912080547fffffffff0000000000000000000000000000000000000000ffffffffffffffff16680100000000000000009092029190911790555b50600160a060020a03166000818152600560209081526040808320805467ffffffffffffffff19166001604060020a039690961695861760e060020a60ff021916905593825260049052919091208054600160a060020a0319169091179055565b82600a810192821562000337579160200282015b82811115620003375782518254600160a060020a031916600160a060020a0390911617825560209092019160019091019062000300565b506200034592915062000393565b5090565b8260058101928215620003375791602002820182811115620003375782518254600160a060020a031916600160a060020a0390911617825560209092019160019091019062000300565b620003ba91905b8082111562000345578054600160a060020a03191681556001016200039a565b90565b61122180620003cd6000396000f3fe6080604052600436106100e15760003560e060020a90048063ca1c0fea11610083578063da9c8e8a1161005d578063da9c8e8a1461033d578063e39f0d6414610363578063e6a23ac3146103ca578063f2fde38b1461042d576100e1565b8063ca1c0fea14610206578063cefb6fa61461023a578063d1df81df14610274576100e1565b806338e2e753116100bf57806338e2e753146101795780634ddfae4b146101ab57806374bf473e146101c05780638da5cb5b146101d5576100e1565b80630fa10a57146100e35780631908c9311461013a578063224a7c6a1461014f575b005b3480156100ef57600080fd5b506101286004803603606081101561010657600080fd5b5067ffffffffffffffff8135169060ff60208201358116916040013516610460565b60408051918252519081900360200190f35b34801561014657600080fd5b50610128610582565b34801561015b57600080fd5b506100e16004803603602081101561017257600080fd5b5035610588565b34801561018557600080fd5b5061018e6105a4565b6040805167ffffffffffffffff9092168252519081900360200190f35b3480156101b757600080fd5b506101286105c8565b3480156101cc57600080fd5b506101286105ce565b3480156101e157600080fd5b506101ea6105d4565b60408051600160a060020a039092168252519081900360200190f35b34801561021257600080fd5b506101ea6004803603602081101561022957600080fd5b503567ffffffffffffffff166105e3565b34801561024657600080fd5b5061024f6105fe565b604080516fffffffffffffffffffffffffffffffff9092168252519081900360200190f35b34801561028057600080fd5b50610289610616565b6040805167ffffffffffffffff88168152600160a060020a038716602082015260ff861691810191909152608081018390526060810160a082018361012080838360005b838110156102e55781810151838201526020016102cd565b50505050905001828103825285818151815260200191508051906020019060200280838360005b8381101561032457818101518382015260200161030c565b5050505090500197505050505050505060405180910390f35b6100e16004803603602081101561035357600080fd5b5035600160a060020a0316610785565b34801561036f57600080fd5b506103966004803603602081101561038657600080fd5b5035600160a060020a0316610c87565b6040805167ffffffffffffffff9094168452600160a060020a03909216602084015260ff1682820152519081900360600190f35b3480156103d657600080fd5b50610406600480360360208110156103ed57600080fd5b50356fffffffffffffffffffffffffffffffff16610cc5565b6040805167ffffffffffffffff938416815291909216602082015281519081900390910190f35b34801561043957600080fd5b506100e16004803603602081101561045057600080fd5b5035600160a060020a0316610cf1565b67ffffffffffffffff8316600090815260046020908152604080832054600160a060020a0316835260058252808320600101805482518185028101850190935280835260609383018282801561050957602002820191906000526020600020906000905b82829054906101000a900467ffffffffffffffff1667ffffffffffffffff16815260200190600801906020826007010492830192600103820291508084116104c45790505b5050835193945050505060ff808516908616101580610526575080155b1561053457915061057b9050565b60019094019360005b82518160ff1610156105765761056a838260ff168151811061055b57fe5b60200260200101518787610460565b9091019060010161053d565b509150505b9392505050565b60065481565b600054600160a060020a0316331461059f57600080fd5b601755565b600254700100000000000000000000000000000000900467ffffffffffffffff1681565b60175481565b60075481565b600054600160a060020a031681565b600460205260009081526040902054600160a060020a031681565b6003546fffffffffffffffffffffffffffffffff1681565b6000806000606060006106276111a7565b61062f6111c6565b336000908152600560209081526040918290208251608081018452815467ffffffffffffffff81168252600160a060020a03680100000000000000008204168285015260e060020a900460ff1681850152600182018054855181860281018601909652808652919492936060860193929083018282801561070357602002820191906000526020600020906000905b82829054906101000a900467ffffffffffffffff1667ffffffffffffffff16815260200190600801906020826007010492830192600103820291508084116106be5790505b50505050508152505090506107166111a7565b60008060015b60098160ff161161075f57845161073590600183610460565b8390039150818460ff6000198401166009811061074e57fe5b60200201529181019160010161071c565b5050825160208401516040850151606090950151919b909a509398509650945092509050565b3360009081526005602052604090205460e060020a900460ff16600181141561082f57336000908152600560205260409020600101546003111561082a57604080517f08c379a000000000000000000000000000000000000000000000000000000000815260206004820152601260248201527f4e6f7420757020746f207374616e646172640000000000000000000000000000604482015290519081900360640190fd5b6108dd565b8060ff16600414156108dd57336000908152600560205260408120546004916001916108679067ffffffffffffffff16836009610460565b905060518110156108d957604080517f08c379a000000000000000000000000000000000000000000000000000000000815260206004820152601260248201527f4e6f7420757020746f207374616e646172640000000000000000000000000000604482015290519081900360640190fd5b5050505b6108e56111c6565b336000908152600560209081526040918290208251608081018452815467ffffffffffffffff81168252600160a060020a03680100000000000000008204168285015260e060020a900460ff168185015260018201805485518186028101860190965280865291949293606086019392908301828280156109b957602002820191906000526020600020906000905b82829054906101000a900467ffffffffffffffff1667ffffffffffffffff16815260200190600801906020826007010492830192600103820291508084116109745790505b5050509190925250505060408101518151919250906001820190600090819067ffffffffffffffff16610ba15760028054600167ffffffffffffffff700100000000000000000000000000000000808404821692909201160277ffffffffffffffff0000000000000000000000000000000019909116179055610a3a6111c6565b600160a060020a038881166000908152600560209081526040918290208251608081018452815467ffffffffffffffff811682526801000000000000000081049095168184015260e060020a90940460ff168484015260018101805484518185028101850190955280855291936060860193909290830182828015610b1257602002820191906000526020600020906000905b82829054906101000a900467ffffffffffffffff1667ffffffffffffffff1681526020019060080190602082600701049283019260010382029150808411610acd5790505b50505091909252505081519192505067ffffffffffffffff16610b6b57600254610b5c90700100000000000000000000000000000000900467ffffffffffffffff16336000610d43565b610b64610e8c565b9250610b9b565b600254610b9790700100000000000000000000000000000000900467ffffffffffffffff16338a610d43565b8792505b50610bb3565b610bb085602001518485610fb8565b91505b60ff84161580610bc657508360ff166004145b15610c2657600160a060020a038216600090815260056020526040902054600f67ffffffffffffffff9091161115610c0e57610c0782600585600401610fb8565b9050610c19565b610c16610e8c565b90505b610c263382601754611064565b336000818152600560205260409020805460ff60e060020a8083048216600101909116027cff0000000000000000000000000000000000000000000000000000000019909116179055601754610c7e91908490611064565b50505050505050565b60056020526000908152604090205467ffffffffffffffff811690680100000000000000008104600160a060020a03169060e060020a900460ff1683565b60186020526000908152604090205467ffffffffffffffff808216916801000000000000000090041682565b600054600160a060020a03163314610d0857600080fd5b600160a060020a03811615610d40576000805473ffffffffffffffffffffffffffffffffffffffff1916600160a060020a0383161790555b50565b600160a060020a03811660009081526005602052604090205467ffffffffffffffff1615610e0757600160a060020a03818116600081815260056020908152604080832060019081018054918201815584529183206004830401805460039093166008026101000a67ffffffffffffffff81810219909416938a16029290921790915592851681529190912080547fffffffff0000000000000000000000000000000000000000ffffffffffffffff16680100000000000000009092029190911790555b50600160a060020a03166000818152600560209081526040808320805467ffffffffffffffff191667ffffffffffffffff969096169586177cff00000000000000000000000000000000000000000000000000000000191690559382526004905291909120805473ffffffffffffffffffffffffffffffffffffffff19169091179055565b6001805467ffffffffffffffff7401000000000000000000000000000000000000000080830482168401821681027fffffffff0000000000000000ffffffffffffffffffffffffffffffffffffffff90931692909217928390556000926009929004160667ffffffffffffffff1660001415610f7357600280546fffffffffffffffff0000000000000000198116680100000000000000009182900467ffffffffffffffff9081166001018116830291909117928390556012926005929004160667ffffffffffffffff1660058110610f6157fe5b0154600160a060020a03169050610fb5565b6002805467ffffffffffffffff198116600167ffffffffffffffff9283160182161791829055600891600a91160667ffffffffffffffff16600a8110610f6157fe5b90565b600060015b8360ff1681121561101f57600160a060020a03948516600090815260056020526040808220546801000000000000000090049096168082529590205467ffffffffffffffff166110175761100f610e8c565b91505061057b565b600101610fbd565b50600160a060020a03841660009081526005602052604090205460ff80841660e060020a90920416101561105c57611055610e8c565b905061057b565b509192915050565b600380546fffffffffffffffffffffffffffffffff19811660016fffffffffffffffffffffffffffffffff9283168101831691909117808455600160a060020a0387811660008181526005602081815260408084205496891684526018808352818520805467ffffffffffffffff998a1667ffffffffffffffff199091161790558c8716808652938352818520549a54909916845297905286822080546fffffffffffffffff0000000000000000191698909516680100000000000000000297909717909355925484517f23b872dd0000000000000000000000000000000000000000000000000000000081526004810194909452602484019590955260448301869052925193909216926323b872dd9260648084019391929182900301818387803b15801561119357600080fd5b505af1158015610c7e573d6000803e3d6000fd5b6040518061012001604052806009906020820280388339509192915050565b60408051608081018252600080825260208201819052918101919091526060808201529056fea265627a7a723158201a503d1bfc69d453062962102a28a8be4aac0690bddf2fe42f8c38a1f569507c64736f6c63430005100032",
  "source": "pragma solidity ^0.5.1;\r\n\r\nimport './Ownable.sol';\r\nimport './Base.sol';\r\n\r\ncontract RedPocketOfUSDT is Ownable, Base{\r\n  \r\n      // test\r\n    Erc20Token internal _usdtIns;\r\n\r\n    constructor (address[10] memory companyAddress, address[5] memory techAddress, address token, uint256 baseAmount) Ownable() public {\r\n        _companyAddresses = companyAddress;\r\n        _techAddresses = techAddress;\r\n        _usdtIns = Erc20Token(token);\r\n        _baseAmount = baseAmount;\r\n        for(uint64 i = 0;i<companyAddress.length;i++){\r\n          _uid ++;\r\n          register(_uid,companyAddress[i],address(0));\r\n        }\r\n        for(uint64 i = 0;i<techAddress.length;i++){\r\n          _uid ++;\r\n          register(_uid,techAddress[i],address(0));\r\n        }\r\n    }\r\n\r\n    // struct RedPocket{\r\n    //   uint128 id; // 红包ID\r\n    //   address from; // 红包发送者\r\n    //   address to; // 红包接收者\r\n    //   uint8 level; // 红包的等级\r\n    // }\r\n\r\n    struct Player{\r\n      uint64 id; // 用户ID\r\n      address referer; // 推荐人\r\n      // address lastRecipient; // 上次接收红包的地址\r\n      uint8 level;// 用户级别\r\n      uint64[] directPushs; // 直推人信息\r\n    }\r\n\r\n    uint64 _rotationId; // 轮循ID，捡漏红包总数 retationId = companyId + techId;\r\n    uint64 _companyId; // 公司轮循ID\r\n    uint64 _techId; // 技术轮循ID\r\n    uint64 public _uid; // 用户总ID\r\n    uint128 public _pid; // 红包总ID\r\n\r\n    mapping(uint64=>address) public _playerMap; // 以id为key存储id和地址的对应关系\r\n    mapping(address=>Player) public _players;// 以address为key存储用户的信息\r\n\r\n    // mapping(address=>uint64[]) msg.senders; // 某个地址发送的所有红包地址，1个人最多发送11个红包，可以按照下标来获取上级推荐人\r\n    // mapping(address=>uint64[]) _recipients; // 某个地址接收的所有红包地址\r\n    uint256 public _baseUnit = 10 ** 6; // USDT精度\r\n    uint8 constant private _companyCount = 10; // 公司地址数量\r\n    uint8 constant private _techCount = 5; // 技术地址数量\r\n    uint8 constant private _addressCount = _companyCount + _techCount;// 总的捡漏地址数量\r\n    uint8 constant private _companyRate = 9; // 公司地址捡漏比例 9 代表 9:1\r\n    uint256 public _techFee = (30 / 10000) * 10 ** 18 ; // 技术服务费（万分位）\r\n\r\n    address[10] private _companyAddresses; // 公司合约地址\r\n    address[5] private _techAddresses; // 技术分红地址\r\n    uint256 public _baseAmount; // 游戏基数\r\n\r\n    struct RedPocket{\r\n      uint64 from; // 红包发送者\r\n      uint64 to; // 红包接收者\r\n    }\r\n\r\n    mapping(uint128=>RedPocket) public _redPocketMap;\r\n    \r\n    // address payable receiver = address(this);\r\n\r\n    function setBaseAmount(uint256 baseAmount) onlyOwner public {\r\n      _baseAmount = baseAmount;\r\n    }\r\n\r\n    /**\r\n     * 发送红包\r\n     * 推荐人\r\n     */\r\n    function sendPocket(address  refAddress) canUpgrade() public payable {\r\n      Player memory player = _players[msg.sender];\r\n      \r\n      // id = 0, 表示用户不存在，id > 0 && 小于等于 15 表示是技术分红地址\r\n      // require(_player.id == 0 || _player.id > 15,\"illegal address\")\r\n      // 当前玩家星级，0级、4级分别需要查到上面第5级和第9级的用户\r\n      uint8 level = player.level;\r\n      uint8 nextLevel = level + 1;\r\n\r\n      address recipient;\r\n      address fiveReferer;\r\n      // 代表该玩家不存在\r\n      if(player.id == 0){\r\n        // 玩家数量加1\r\n        _uid ++;\r\n        Player memory referer = _players[refAddress];\r\n        // 如果推荐人是0地址则代表没有推荐人\r\n        if(referer.id == 0){\r\n          register(_uid,msg.sender,address(0));\r\n          recipient = getRotationAddress();\r\n        } else {\r\n          register(_uid,msg.sender,refAddress);\r\n          recipient = refAddress;\r\n        }\r\n      }else{\r\n        recipient = getNextLevelRecipient(player.referer, nextLevel, nextLevel);\r\n      }\r\n      if(level == 0 || level == 4){\r\n        if(_players[recipient].id > _addressCount){\r\n          // 升1级和升5级，要给5级和9级红包，相当于是上一级0->1、4->5，再加4处理\r\n          // 直接用下一级的接收者+4，可以节省前面轮循的4次\r\n          fiveReferer = getNextLevelRecipient(recipient, 5, nextLevel + 4);\r\n        }else{\r\n          fiveReferer = getRotationAddress();\r\n        }\r\n        // 转账给5级接收者\r\n        transfer(msg.sender,fiveReferer, _baseAmount);\r\n      }\r\n      // 用户升一级\r\n      _players[msg.sender].level += 1;\r\n      // 转账给接收者\r\n      transfer(msg.sender,recipient, _baseAmount);\r\n      // this.send(_techFee);\r\n    }\r\n\r\n    function transfer(address from, address to ,uint value) private {\r\n      _pid ++;\r\n      _redPocketMap[_pid].from = _players[from].id;\r\n      _redPocketMap[_pid].to = _players[to].id;\r\n      _usdtIns.transferFrom(from, to, value);\r\n    }\r\n\r\n    /**\r\n    * 检查玩家是否可以升级\r\n     */\r\n    modifier canUpgrade(){\r\n      uint8 level = _players[msg.sender].level;\r\n      // if(level==0 || level == 4){\r\n      //   require(msg.value == _baseAmount*2, \"The amount is wrong\");\r\n      // }\r\n      if(level == 1){\r\n        // 推荐3个玩家\r\n        require(_players[msg.sender].directPushs.length >= 3, \"Not up to standard\");\r\n      }else if(level == 4){\r\n        // 下线已经推荐了81个玩家\r\n        uint8 maxDepth = 4; // 最大深度，即往下查几代\r\n        uint8 depth = 1;\r\n        uint256 count = statisticDirectPushCount(_players[msg.sender].id,1,9);\r\n        require(count >= 81, \"Not up to standard\");\r\n      }      \r\n      _;\r\n    }\r\n\r\n    /**\r\n    * 递归函数，查询一个地址下面人脉数\r\n    * uid 玩家ID\r\n    * depth 传入玩家的相对深度\r\n    * maxDepth 查询的最大深度\r\n    */\r\n    function statisticDirectPushCount(uint64 uid,uint8 depth,uint8 maxDepth) view public returns(uint256){\r\n      uint64[] memory arr = _players[_playerMap[uid]].directPushs;\r\n      uint256 count = arr.length;\r\n      if(depth >= maxDepth || count == 0){\r\n        return count;\r\n      }\r\n      depth ++ ;\r\n      for(uint8 i = 0; i < arr.length ; i++){\r\n        count = count + statisticDirectPushCount(arr[i], depth, maxDepth);\r\n      }\r\n      return count;\r\n    }\r\n\r\n    function getPlayerInfo() view public returns(uint64,address,uint8,uint64[] memory,uint256,uint256[9] memory){\r\n      Player memory player = _players[msg.sender];\r\n      // 获取9个等级的人数\r\n      uint256[9] memory levelCount;\r\n      uint256 totalCount = 0;\r\n      uint256 count;\r\n      for(uint8 i = 1; i <= 9; i++){\r\n        count = statisticDirectPushCount(player.id, 1, i);\r\n        count = count - totalCount;\r\n        levelCount[i-1] = count;\r\n        totalCount += count;\r\n      }\r\n      return (player.id,player.referer,player.level,player.directPushs,totalCount,levelCount);\r\n    }\r\n\r\n    /**\r\n    * 获取下一级接收者\r\n    * addr 该玩家的推荐人地址（省一个轮循）\r\n    * level 玩家的下一级别\r\n    * standardLevel 接收者的级别要求\r\n     */\r\n    function getNextLevelRecipient(address addr ,uint8 level,uint8 standardLevel) private returns(address){\r\n      for(int i = 1 ;i < level; i++){\r\n        addr = _players[addr].referer;\r\n        if(_players[addr].id == 0){\r\n          // 获取捡漏地址\r\n          return getRotationAddress();\r\n        }\r\n      }\r\n      if(_players[addr].level < standardLevel){\r\n        return getRotationAddress();\r\n      }\r\n      return addr;\r\n    }\r\n\r\n    // 注册玩家信息\r\n    function register(uint64 uid, address sender, address referer) private {\r\n      // uint64[] memory arr;\r\n      if(_players[referer].id != 0){\r\n        _players[referer].directPushs.push(uid);\r\n        _players[sender].referer = referer;\r\n      }\r\n      // Player memory player = Player(uid,referer,1,arr);\r\n      _players[sender].id = uid;\r\n      _players[sender].level = 0;\r\n      _playerMap[uid]=sender;\r\n    }\r\n\r\n    /**\r\n    * 获取轮循库中的地址\r\n    */\r\n    function getRotationAddress() private returns(address){\r\n      _rotationId ++;\r\n      // 一个技术地址得红包\r\n      if(_rotationId % _companyRate == 0){\r\n        _techId ++;\r\n        return _techAddresses[_techId % _techCount];\r\n      }else{\r\n        _companyId ++;\r\n        return _companyAddresses[_companyId % _companyCount];\r\n      }\r\n    }\r\n\r\n    function () external payable {}\r\n}",
  "sourcePath": "D:/projects/github/solidity/red-pocket/contracts/RedPocketOfUSDT.sol",
  "compiler": {
    "name": "solc",
    "version": "0.5.16+commit.9c3226ce.Emscripten.clang"
  },
  "schemaVersion": "3.2.5",
  "updatedAt": "2021-01-13T07:54:51.386Z",
  "networkType": "ethereum",
  "devdoc": {
    "methods": {
      "transferOwnership(address)": {
        "details": "Allows the current owner to transfer control of the contract to a newOwner.",
        "params": {
          "newOwner": "The address to transfer ownership to."
        }
      }
    }
  },
  "userdoc": {
    "methods": {
      "sendPocket(address)": {
        "notice": "发送红包 推荐人"
      },
      "statisticDirectPushCount(uint64,uint8,uint8)": {
        "notice": "递归函数，查询一个地址下面人脉数 uid 玩家ID depth 传入玩家的相对深度 maxDepth 查询的最大深度"
      }
    }
  }
}