{
  "contractName": "RedPocket",
  "abi": [
    {
      "inputs": [
        {
          "internalType": "address[10]",
          "name": "companyAddress",
          "type": "address[10]"
        },
        {
          "internalType": "address[5]",
          "name": "techAddress",
          "type": "address[5]"
        }
      ],
      "payable": false,
      "stateMutability": "nonpayable",
      "type": "constructor"
    },
    {
      "payable": true,
      "stateMutability": "payable",
      "type": "fallback"
    },
    {
      "constant": true,
      "inputs": [],
      "name": "_baseAmount",
      "outputs": [
        {
          "internalType": "uint256",
          "name": "",
          "type": "uint256"
        }
      ],
      "payable": false,
      "stateMutability": "view",
      "type": "function"
    },
    {
      "constant": true,
      "inputs": [],
      "name": "_baseUnit",
      "outputs": [
        {
          "internalType": "uint256",
          "name": "",
          "type": "uint256"
        }
      ],
      "payable": false,
      "stateMutability": "view",
      "type": "function"
    },
    {
      "constant": true,
      "inputs": [],
      "name": "_techFee",
      "outputs": [
        {
          "internalType": "uint256",
          "name": "",
          "type": "uint256"
        }
      ],
      "payable": false,
      "stateMutability": "view",
      "type": "function"
    },
    {
      "constant": true,
      "inputs": [],
      "name": "_uid",
      "outputs": [
        {
          "internalType": "uint64",
          "name": "",
          "type": "uint64"
        }
      ],
      "payable": false,
      "stateMutability": "view",
      "type": "function"
    },
    {
      "constant": true,
      "inputs": [],
      "name": "owner",
      "outputs": [
        {
          "internalType": "address",
          "name": "",
          "type": "address"
        }
      ],
      "payable": false,
      "stateMutability": "view",
      "type": "function"
    },
    {
      "constant": false,
      "inputs": [
        {
          "internalType": "address",
          "name": "newOwner",
          "type": "address"
        }
      ],
      "name": "transferOwnership",
      "outputs": [],
      "payable": false,
      "stateMutability": "nonpayable",
      "type": "function"
    },
    {
      "constant": false,
      "inputs": [
        {
          "internalType": "uint256",
          "name": "baseAmount",
          "type": "uint256"
        }
      ],
      "name": "setBaseAmount",
      "outputs": [],
      "payable": false,
      "stateMutability": "nonpayable",
      "type": "function"
    },
    {
      "constant": false,
      "inputs": [
        {
          "internalType": "address",
          "name": "refAddress",
          "type": "address"
        }
      ],
      "name": "sendPocket",
      "outputs": [],
      "payable": true,
      "stateMutability": "payable",
      "type": "function"
    },
    {
      "constant": true,
      "inputs": [
        {
          "internalType": "uint64[]",
          "name": "arr",
          "type": "uint64[]"
        },
        {
          "internalType": "uint8",
          "name": "depth",
          "type": "uint8"
        },
        {
          "internalType": "uint8",
          "name": "maxDepth",
          "type": "uint8"
        }
      ],
      "name": "statisticDirectPushCount",
      "outputs": [
        {
          "internalType": "uint64",
          "name": "",
          "type": "uint64"
        }
      ],
      "payable": false,
      "stateMutability": "view",
      "type": "function"
    },
    {
      "constant": true,
      "inputs": [],
      "name": "getPlayerInfo",
      "outputs": [
        {
          "internalType": "uint64",
          "name": "",
          "type": "uint64"
        },
        {
          "internalType": "address",
          "name": "",
          "type": "address"
        },
        {
          "internalType": "uint8",
          "name": "",
          "type": "uint8"
        },
        {
          "internalType": "uint64[]",
          "name": "",
          "type": "uint64[]"
        },
        {
          "internalType": "uint64",
          "name": "",
          "type": "uint64"
        },
        {
          "internalType": "uint64[9]",
          "name": "",
          "type": "uint64[9]"
        }
      ],
      "payable": false,
      "stateMutability": "view",
      "type": "function"
    }
  ],
  "bytecode": "0x6080604052620f4240600555660aa87bee538000600655629896806016553480156200002a57600080fd5b50604051620013ca380380620013ca83398181016040526101e08110156200005157600080fd5b5060008054600160a060020a03191633179055610140810162000078600783600a62000091565b50620000886011826005620000ee565b50505062000162565b82600a8101928215620000dc579160200282015b82811115620000dc5782518254600160a060020a031916600160a060020a03909116178255602090920191600190910190620000a5565b50620000ea92915062000138565b5090565b8260058101928215620000dc5791602002820182811115620000dc5782518254600160a060020a031916600160a060020a03909116178255602090920191600190910190620000a5565b6200015f91905b80821115620000ea578054600160a060020a03191681556001016200013f565b90565b61125880620001726000396000f3fe6080604052600436106100955760003560e060020a900480638da5cb5b1161005d5780638da5cb5b14610144578063cbbe7aed14610175578063d1df81df14610235578063da9c8e8a14610300578063f2fde38b1461032657610095565b80631908c93114610097578063224a7c6a146100be57806338e2e753146100e85780634ddfae4b1461011a57806374bf473e1461012f575b005b3480156100a357600080fd5b506100ac610359565b60408051918252519081900360200190f35b3480156100ca57600080fd5b50610095600480360360208110156100e157600080fd5b503561035f565b3480156100f457600080fd5b506100fd61037b565b6040805167ffffffffffffffff9092168252519081900360200190f35b34801561012657600080fd5b506100ac61039f565b34801561013b57600080fd5b506100ac6103a5565b34801561015057600080fd5b506101596103ab565b60408051600160a060020a039092168252519081900360200190f35b34801561018157600080fd5b506100fd6004803603606081101561019857600080fd5b8101906020810181356401000000008111156101b357600080fd5b8201836020820111156101c557600080fd5b803590602001918460208302840111640100000000831117156101e757600080fd5b9190808060200260200160405190810160405280939291908181526020018383602002808284376000920191909152509295505060ff83358116945060209093013590921691506103ba9050565b34801561024157600080fd5b5061024a610530565b6040805167ffffffffffffffff8089168252600160a060020a038816602083015260ff87169282019290925290831660808201526060810160a082018361012080838360005b838110156102a8578181015183820152602001610290565b50505050905001828103825285818151815260200191508051906020019060200280838360005b838110156102e75781810151838201526020016102cf565b5050505090500197505050505050505060405180910390f35b6100956004803603602081101561031657600080fd5b5035600160a060020a0316610778565b34801561033257600080fd5b506100956004803603602081101561034957600080fd5b5035600160a060020a0316610de4565b60055481565b600054600160a060020a0316331461037657600080fd5b601655565b600154700100000000000000000000000000000000900467ffffffffffffffff1681565b60165481565b60065481565b600054600160a060020a031681565b60008160ff168360ff1611156103d257506000610529565b6001909201916000805b85518160ff161015610525576103f06111de565b60046000600360008a8660ff168151811061040757fe5b60209081029190910181015167ffffffffffffffff9081168352828201939093526040918201600090812054600160a060020a039081168652858301969096529382019093208151608081018352815493841681526801000000000000000084049095168585015260e060020a90920460ff168482015260018201805482518186028101860190935280835292936060860193908301828280156104fe57602002820191906000526020600020906000905b82829054906101000a900467ffffffffffffffff1667ffffffffffffffff16815260200190600801906020826007010492830192600103820291508084116104b95790505b5050505050815250509050610518816060015187876103ba565b90920191506001016103dc565b5090505b9392505050565b600080600060606000610541611204565b6105496111de565b336000908152600460209081526040918290208251608081018452815467ffffffffffffffff81168252600160a060020a03680100000000000000008204168285015260e060020a900460ff1681850152600182018054855181860281018601909652808652919492936060860193929083018282801561061d57602002820191906000526020600020906000905b82829054906101000a900467ffffffffffffffff1667ffffffffffffffff16815260200190600801906020826007010492830192600103820291508084116105d85790505b5050505050815250509050610630611204565b60608201515160005b60098160ff161015610753576060808501516040517fcbbe7aed00000000000000000000000000000000000000000000000000000000815260006024820181905260ff85166044830152600482019384528251606483015282519093309363cbbe7aed93909286928892909182916084019060208088019102808383895b838110156106cf5781810151838201526020016106b7565b5050505090500194505050505060206040518083038186803b1580156106f457600080fd5b505afa158015610708573d6000803e3d6000fd5b505050506040513d602081101561071e57600080fd5b5051928301929050808460ff84166009811061073657fe5b67ffffffffffffffff909216602092909202015250600101610639565b50825160208401516040850151606090950151919b909a509398509650945092509050565b3360009081526004602052604090205460e060020a900460ff168015806107a257508060ff166004145b1561081a57601654600202341461081a57604080517f08c379a000000000000000000000000000000000000000000000000000000000815260206004820152601360248201527f54686520616d6f756e742069732077726f6e6700000000000000000000000000604482015290519081900360640190fd5b8060ff16600114156108ad5733600090815260046020526040902060010154600311156108a857604080517f08c379a000000000000000000000000000000000000000000000000000000000815260206004820152601260248201527f4e6f7420757020746f207374616e646172640000000000000000000000000000604482015290519081900360640190fd5b6109e0565b8060ff16600414156109e057336000908152600460208181526040928390206001908101805485518185028101850190965280865294919261095e929190869083018282801561095057602002820191906000526020600020906000905b82829054906101000a900467ffffffffffffffff1667ffffffffffffffff168152602001906008019060208260070104928301926001038202915080841161090b5790505b5050505050600160046103ba565b8301925060518367ffffffffffffffff1610156109dc57604080517f08c379a000000000000000000000000000000000000000000000000000000000815260206004820152601260248201527f4e6f7420757020746f207374616e646172640000000000000000000000000000604482015290519081900360640190fd5b5050505b6109e86111de565b336000908152600460209081526040918290208251608081018452815467ffffffffffffffff81168252600160a060020a03680100000000000000008204168285015260e060020a900460ff16818501526001820180548551818602810186019096528086529194929360608601939290830182828015610abc57602002820191906000526020600020906000905b82829054906101000a900467ffffffffffffffff1667ffffffffffffffff1681526020019060080190602082600701049283019260010382029150808411610a775790505b5050505050815250509050610acf6111de565b600160a060020a038481166000908152600460209081526040918290208251608081018452815467ffffffffffffffff811682526801000000000000000081049095168184015260e060020a90940460ff168484015260018101805484518185028101850190955280855291936060860193909290830182828015610ba757602002820191906000526020600020906000905b82829054906101000a900467ffffffffffffffff1667ffffffffffffffff1681526020019060080190602082600701049283019260010382029150808411610b625790505b5050509190925250505060408301518351919250906001820190600090819067ffffffffffffffff16610cad576001805467ffffffffffffffff7001000000000000000000000000000000008083048216840182160277ffffffffffffffff000000000000000000000000000000001990921691909117909155855116610c3757610c30610e36565b9150610c3b565b8791505b845167ffffffffffffffff1615610c7c57600154610c7790700100000000000000000000000000000000900467ffffffffffffffff1689610f5d565b610ca8565b600154610ca890700100000000000000000000000000000000900467ffffffffffffffff166000610f5d565b610cbc565b610cb93384600561106e565b91505b60ff84161580610ccf57508360ff166004145b15610d5957600160a060020a038216600090815260046020526040902054600f67ffffffffffffffff9091161115610d1557610d0e826004600961106e565b9050610d20565b610d1d610e36565b90505b601654604051600160a060020a0383169180156108fc02916000818181858888f19350505050158015610d57573d6000803e3d6000fd5b505b33600090815260046020526040808220805460ff60e060020a8083048216600101909116027cff00000000000000000000000000000000000000000000000000000000199091161790556016549051600160a060020a0385169282156108fc02929190818181858888f19350505050158015610dd9573d6000803e3d6000fd5b505050505050505050565b600054600160a060020a03163314610dfb57600080fd5b600160a060020a03811615610e33576000805473ffffffffffffffffffffffffffffffffffffffff1916600160a060020a0383161790555b50565b600080547fffffffff0000000000000000ffffffffffffffffffffffffffffffffffffffff8116740100000000000000000000000000000000000000009182900467ffffffffffffffff90811660010181168302919091178084556009929004160667ffffffffffffffff1660001415610f19576001805467ffffffffffffffff6801000000000000000080830482168401821681026fffffffffffffffff00000000000000001990931692909217928390556011926005929004160667ffffffffffffffff1660058110610f0757fe5b0154600160a060020a03169050610f5a565b6001805467ffffffffffffffff19811667ffffffffffffffff918216830182161791829055600791600a91160667ffffffffffffffff16600a8110610f0757fe5b90565b600160a060020a03811660009081526004602052604090205467ffffffffffffffff161561101c57600160a060020a03811660008181526004602081815260408084206001908101805491820181558552918420928204909201805460039092166008026101000a67ffffffffffffffff8181021990931692881602919091179055338252902080547fffffffff0000000000000000000000000000000000000000ffffffffffffffff16680100000000000000009092029190911790555b50336000908152600460205260409020805467ffffffffffffffff191667ffffffffffffffff92909216919091177cff0000000000000000000000000000000000000000000000000000000019169055565b6000805b8360ff16811215611199576110856111de565b600160a060020a038681166000908152600460209081526040918290208251608081018452815467ffffffffffffffff811682526801000000000000000081049095168184015260e060020a90940460ff16848401526001810180548451818502810185019095528085529193606086019390929083018282801561115d57602002820191906000526020600020906000905b82829054906101000a900467ffffffffffffffff1667ffffffffffffffff16815260200190600801906020826007010492830192600103820291508084116111185790505b50505091909252505081519192505067ffffffffffffffff1661118b57611182610e36565b92505050610529565b602001519450600101611072565b50600160a060020a03841660009081526004602052604090205460ff80841660e060020a9092041610156111d6576111cf610e36565b9050610529565b509192915050565b604080516080810182526000808252602082018190529181019190915260608082015290565b604051806101200160405280600990602082028038833950919291505056fea265627a7a723158200003021bba9fc22259992ee743b0200613e1b9a32f71fda26c78a1de1a5c1bf864736f6c63430005100032",
  "source": "pragma solidity ^0.5.1;\r\n\r\nimport './Ownable.sol';\r\nimport './Base.sol';\r\n\r\ncontract RedPocket is Ownable, Base{\r\n  \r\n    constructor (address[10] memory companyAddress, address[5] memory techAddress) Ownable() public {\r\n        _companyAddresses = companyAddress;\r\n        _techAddresses = techAddress;\r\n    }\r\n\r\n    // struct RedPocket{\r\n    //   uint128 id; // 红包ID\r\n    //   address from; // 红包发送者\r\n    //   address to; // 红包接收者\r\n    //   uint8 level; // 红包的等级\r\n    // }\r\n\r\n    struct Player{\r\n      uint64 id; // 用户ID\r\n      address referer; // 推荐人\r\n      // address lastRecipient; // 上次接收红包的地址\r\n      uint8 level;// 用户级别\r\n      uint64[] directPushs; // 直推人信息\r\n    }\r\n\r\n    uint64 _rotationId; // 轮循ID，捡漏红包总数 retationId = companyId + techId;\r\n    uint64 _companyId; // 公司轮循ID\r\n    uint64 _techId; // 技术轮循ID\r\n    uint64 public _uid; // 用户总ID\r\n    uint128 _pid; // 红包总ID\r\n\r\n    mapping(uint64=>address) _playerMap; // 以id为key存储id和地址的对应关系\r\n    mapping(address=>Player) _players;// 以address为key存储用户的信息\r\n\r\n    // mapping(address=>uint64[]) msg.senders; // 某个地址发送的所有红包地址，1个人最多发送11个红包，可以按照下标来获取上级推荐人\r\n    // mapping(address=>uint64[]) _recipients; // 某个地址接收的所有红包地址\r\n    uint256 public _baseUnit = 10 ** 6; // USDT精度\r\n    uint8 constant private _companyCount = 10; // 公司地址数量\r\n    uint8 constant private _techCount = 5; // 技术地址数量\r\n    uint8 constant private _addressCount = _companyCount + _techCount;// 总的捡漏地址数量\r\n    uint8 constant private _companyRate = 9; // 公司地址捡漏比例 9 代表 9:1\r\n    uint256 public _techFee = (30 / 10000) * 10 ** 18 ; // 技术服务费（万分位）\r\n\r\n    address[10] private _companyAddresses; // 公司合约地址\r\n    address[5] private _techAddresses; // 技术分红地址\r\n    uint256 public _baseAmount = 10 * _baseUnit; // 游戏基数（10USDT）\r\n    \r\n    // address payable receiver = address(this);\r\n\r\n    function setBaseAmount(uint256 baseAmount) onlyOwner public {\r\n      _baseAmount = baseAmount;\r\n    }\r\n\r\n    /**\r\n     * 发送红包\r\n     * 推荐人\r\n     */\r\n    function sendPocket(address  refAddress) canUpgrade() public payable {\r\n      Player memory player = _players[msg.sender];\r\n      Player memory referer = _players[refAddress];\r\n      // id = 0, 表示用户不存在，id > 0 && 小于等于 15 表示是技术分红地址\r\n      // require(_player.id == 0 || _player.id > 15,\"illegal address\")\r\n      // 当前玩家星级，0级、4级分别需要查到上面第5级和第9级的用户\r\n      uint8 level = player.level;\r\n      uint8 nextLevel = level + 1;\r\n\r\n      address recipient;\r\n      address fiveReferer;\r\n      // 代表该玩家不存在\r\n      if(player.id == 0){\r\n        // 玩家数量加1\r\n        _uid ++;\r\n        // 如果推荐人是0地址则代表没有推荐人\r\n        if(referer.id == 0){\r\n          recipient = getRotationAddress();\r\n        } else {\r\n          recipient = refAddress;\r\n        }\r\n        // 发送给推荐人1个，发送给上面第5级一个\r\n        if(referer.id > 0){\r\n          register(_uid,refAddress);\r\n        }else{\r\n          register(_uid,address(0));\r\n        }\r\n      }else{\r\n        recipient = getNextLevelRecipient(msg.sender, nextLevel, 5);\r\n      }\r\n      if(level == 0 || level == 4){\r\n        if(_players[recipient].id > _addressCount){\r\n          // 升1级和升5级，要给5级和9级红包，相当于是上一级0->1、4->5，再加4处理\r\n          fiveReferer = getNextLevelRecipient(recipient, 4, 9);\r\n        }else{\r\n          fiveReferer = getRotationAddress();\r\n        }\r\n        // 转账给5级接收者\r\n        // _usdtIns.transfer(fiveReferer, _baseAmount);\r\n        address(uint160(fiveReferer)).transfer(_baseAmount);\r\n      }\r\n      // 用户升一级\r\n      _players[msg.sender].level += 1;\r\n      // 转账给接收者\r\n      // _usdtIns.transfer(recipient, _baseAmount);\r\n      // 扣除ETH手续费\r\n      // this.send(_techFee);\r\n      address(uint160(recipient)).transfer(_baseAmount);\r\n    }\r\n\r\n    /**\r\n    * 检查玩家是否可以升级\r\n     */\r\n    modifier canUpgrade(){\r\n      uint8 level = _players[msg.sender].level;\r\n      if(level==0 || level == 4){\r\n        require(msg.value == _baseAmount*2, \"The amount is wrong\");\r\n      }\r\n      if(level == 1){\r\n        // 推荐3个玩家\r\n        require(_players[msg.sender].directPushs.length >= 3, \"Not up to standard\");\r\n      }else if(level == 4){\r\n        // 下线已经推荐了81个玩家\r\n        uint64 count = uint64(_players[msg.sender].directPushs.length);\r\n        uint8 maxDepth = 4; // 最大深度，即往下查几代\r\n        uint8 depth = 1;\r\n        count = count + statisticDirectPushCount(_players[msg.sender].directPushs,1,4);\r\n        require(count >= 81, \"Not up to standard\");\r\n      }      \r\n      _;\r\n    }\r\n\r\n    /**\r\n    * 递归函数，查询一个地址下面所有直推人\r\n    * arr 玩家ID（uid）集合\r\n    * depth 传入玩家的相对深度\r\n    * 查询的最大深度\r\n    */\r\n    function statisticDirectPushCount(uint64[] memory arr,uint8 depth,uint8 maxDepth) view public returns(uint64){\r\n      if(depth > maxDepth){\r\n        return 0;\r\n      }\r\n      depth ++ ;\r\n      uint64 count = 0;\r\n      for(uint8 i = 0; i < arr.length ; i++){\r\n        Player memory dpPlayer = _players[_playerMap[arr[i]]];\r\n        count = count + statisticDirectPushCount(dpPlayer.directPushs, depth, maxDepth);\r\n      }\r\n      return count;\r\n    }\r\n\r\n    function getPlayerInfo() view public returns(uint64,address,uint8,uint64[] memory,uint64,uint64[9] memory){\r\n      Player memory player = _players[msg.sender];\r\n      // 获取9个等级的人数\r\n      uint64[9] memory levelCount;\r\n      uint64 totalCount = uint64(player.directPushs.length);\r\n      for(uint8 i = 0; i< 9; i++){\r\n        uint64 count = this.statisticDirectPushCount(player.directPushs, 0, i);\r\n        totalCount += count;\r\n        levelCount[i] = count;\r\n      }\r\n      return (player.id,player.referer,player.level,player.directPushs,totalCount,levelCount);\r\n    }\r\n\r\n    /**\r\n    * 获取下一级接收者\r\n     */\r\n    function getNextLevelRecipient(address addr ,uint8 level,uint8 standardLevel) private returns(address){\r\n      for(int i = 0 ;i < level; i++){\r\n          Player memory player = _players[addr];\r\n          if(player.id == 0){\r\n            // 获取捡漏地址\r\n            return getRotationAddress();\r\n          }\r\n          addr = player.referer;\r\n      }\r\n      if(_players[addr].level < standardLevel){\r\n        return getRotationAddress();\r\n      }\r\n      return addr;\r\n    }\r\n\r\n    // 注册玩家信息\r\n    function register(uint64 uid, address referer) private {\r\n      // uint64[] memory arr;\r\n      if(_players[referer].id != 0){\r\n        _players[referer].directPushs.push(uid);\r\n        _players[msg.sender].referer = referer;\r\n      }\r\n      // Player memory player = Player(uid,referer,1,arr);\r\n      _players[msg.sender].id = uid;\r\n      _players[msg.sender].level = 0;\r\n    }\r\n\r\n    /**\r\n    * 获取轮循库中的地址\r\n    */\r\n    function getRotationAddress() private returns(address){\r\n      _rotationId ++;\r\n      // 一个技术地址得红包\r\n      if(_rotationId % _companyRate == 0){\r\n        _techId ++;\r\n        return _techAddresses[_techId % _techCount];\r\n      }else{\r\n        _companyId ++;\r\n        return _companyAddresses[_companyId % _companyCount];\r\n      }\r\n    }\r\n\r\n    function () external payable {}\r\n}",
  "sourcePath": "D:/projects/github/solidity/red-pocket/contracts/RedPocket.sol",
  "compiler": {
    "name": "solc",
    "version": "0.5.16+commit.9c3226ce.Emscripten.clang"
  },
  "schemaVersion": "3.2.5",
  "updatedAt": "2021-01-11T10:51:47.157Z",
  "networkType": "ethereum",
  "devdoc": {
    "methods": {
      "transferOwnership(address)": {
        "details": "Allows the current owner to transfer control of the contract to a newOwner.",
        "params": {
          "newOwner": "The address to transfer ownership to."
        }
      }
    }
  },
  "userdoc": {
    "methods": {
      "sendPocket(address)": {
        "notice": "发送红包 推荐人"
      },
      "statisticDirectPushCount(uint64[],uint8,uint8)": {
        "notice": "递归函数，查询一个地址下面所有直推人 arr 玩家ID（uid）集合 depth 传入玩家的相对深度 查询的最大深度"
      }
    }
  }
}